:020000040800F2
:10000000B81700205D010008510C0008490C0008D9
:100010004D0C0008430300088F1900080000000081
:100020000000000000000000000000007F10000839
:10003000CD03000800000000730100083D11000816
:100040007701000877010008770100085D100008BB
:100050007701000877010008CF0300080F040008AB
:10006000270400083F04000857040008770100082F
:100070007701000877010008770100087701000880
:100080007701000877010008770100087701000870
:100090007701000877010008770100086F04000865
:1000A0007701000877010008770100087701000850
:1000B00025130008451300087701000877010008A0
:1000C0007701000877010008770100087701000830
:1000D00077010008D51500083D160008B116000884
:1000E000E70300087701000877010008770100089E
:1000F0007701000877010008770100087701000800
:10010000051500087701000877010008770100084D
:1001100077010008770100087701000877010008DF
:1001200077010008770100087701000877010008CF
:1001300077010008770100087701000877010008BF
:100140007701000877010008DFF80CD000F068F8AC
:1001500000480047911E0008B81700200648804755
:1001600006480047FEE7FEE7FEE7FEE7FEE7FEE79C
:10017000FEE7FEE7FEE7FEE741120008490100083E
:100180002DE9F05F0546002092469B4688460646CC
:10019000814640241BE0284641464746224600F05F
:1001A0002FF853465A46C01A914110D311461846AB
:1001B000224600F016F82D1A67EB01084F4622463A
:1001C0000120002100F00DF817EB00094E41201E20
:1001D000A4F10104DFDC484631462A464346BDE827
:1001E000F09F202A04DB203A00FA02F10020704739
:1001F0009140C2F1200320FA03F319439040704765
:10020000202A04DB203A21FA02F00021704721FA6B
:1002100002F3D040C2F120029140084319467047D2
:10022000064C074D06E0E06840F0010394E8070043
:1002300098471034AC42F6D3FFF78AFF642A0008CF
:10024000842A00087F228A4302607047F0B5044682
:10025000154600200022122904D1E06D20F007008D
:100260001843E065092911DDE068A1F10A0606EBF3
:100270004607072606FA07F29043A1F10A0606EBA5
:10028000460603FA06F21043E0600CE0206901EB39
:100290004107072606FA07F2904301EB410603FAED
:1002A00006F210432061072D0FDA606B6E1E06EB1D
:1002B00086071F2606FA07F290436E1E06EB860697
:1002C00001FA06F21043606322E00D2D0FDA206B75
:1002D000EE1F06EB86071F2606FA07F29043EE1F75
:1002E00006EB860601FA06F21043206310E0E06A8E
:1002F000A5F10D0606EB86071F2606FA07F29043C6
:10030000A5F10D0606EB860601FA06F21043E0623F
:10031000F0BD21B1826842F4A002826003E08268ED
:1003200022F4A002826070470146C86C80B2704718
:100330000246002013680B400BB1012000E00020B2
:10034000704700BFFEE70000002040F2596172B61E
:1003500000BF1C4A126902F00202022A03D00A1EE0
:10036000A1F10101F5D100BF174A126822F0007215
:10037000154B1A601A46126842F000721A6000BFEC
:10038000104A106820F4C06040F48060106040F2B1
:10039000596100BF0B4A126902F002021AB10A1E2B
:1003A000A1F10101F6D140F2596100BF054A12697D
:1003B00002F00202022A03D00A1EA1F10101F5D1C6
:1003C00062B670470070004020180040704710B5BA
:1003D000012000F065F828B1012000F05BF8012051
:1003E00000F004FA10BD70B54FF480640BE02046B5
:1003F00000F056F830B1204600F04CF8A5B228467F
:1004000000F0F4F96400B4F5004FF0D970BD10B5F8
:10041000022000F045F828B1022000F03BF802204D
:1004200000F0E4F910BD10B5042000F039F828B14F
:10043000042000F02FF8042000F0D8F910BD10B50A
:10044000082000F02DF828B1082000F023F808203B
:1004500000F0CCF910BD10B5102000F021F828B143
:10046000102000F017F8102000F0C0F910BD70B592
:1004700020240BE0204600F013F830B1204600F0B5
:1004800009F8A5B2284600F0B1F96400B4F5007F80
:10049000F0D970BD014908607047000014040140A4
:1004A000014600200022074B1B6803EA0102054BAE
:1004B00014331B680B4013B10AB1012000E0002087
:1004C0007047000000040140002123498279002A7E
:1004D0003AD00A46126803689A430B461A600A1D0E
:1004E000126803689A430B1D1A60027911440A6866
:1004F00003681A430A60184A0832126803689A436C
:10050000154B08331A601A1D126803689A43124B80
:100510000C331A604279102A0ED11A1F1268036830
:100520001A430D4B08331A601A1D126803681A43E8
:10053000094B0C331A600DE00749427911440A68EF
:1005400003681A430A6005E0027911440A680368E7
:100550009A430A6070470000000401400549096899
:1005600021F01001034A116011460968014311602E
:10057000704700000020024001460020034A106836
:1005800000F0F800084310607047000000200240AF
:1005900030B502460D4B8C1053F824308C07250FD4
:1005A0000324AC40A343094C8D1044F82530234666
:1005B0008C1053F824308C07240F02FA04F41C43E7
:1005C000024B8D1043F8254030BD0000040001406F
:1005D000F0B5034600250020002400220026E3E0B9
:1005E0000F884FF0010C0CFA02FC07EA0C06002EF3
:1005F0006FD055008F68022F07D08F68122F04D05C
:100600008F6817B18F68032F25D102F008078FB1CB
:10061000586A57074FEAD76C0F2707FA0CF7B84309
:100620004FEA427C4FEADC6CCF6807FA0CF738439C
:10063000586210E0186A57074FEAD76C0F2707FA7D
:100640000CF7B8434FEA427C4FEADC6CCF6807FAFC
:100650000CF7384318621C680F7A07F00F00032765
:10066000AF40BC4300FA05F73C431C60DC680F79DF
:1006700007F003000327AF40BC4300FA05F73C43F3
:10068000DC600F7A07F003076FB18F68032F0AD081
:10069000DC6A8F7807F003000327AF40BC4300FA01
:1006A00005F73C43DC62986801279740B843CF7850
:1006B00007F001079740384398600F79022F09D15E
:1006C0009F6A4FF0010C0CFA02FC47EA0C079F628C
:1006D0000BE068E00F79012F07D19F694FF0010C03
:1006E0000CFA02FC47EA0C079F618F68012F08D0C3
:1006F0008F68022F05D08F68112F02D08F68122FBC
:1007000009D1586801279740B8430F7AC7F30017FB
:100710009740384358608F6807F08057002F42D0C9
:10072000244F386801279740B8438F6807F4803713
:10073000B7F5803F02D10127974038431D4F3860FD
:100740003F1D386801279740B8438F6807F400378A
:10075000B7F5003F02D1012797403843154F3F1DA1
:1007600038603F1D386801279740B8438F6807F409
:100770008017B7F5801F02D10127974038430D4FEE
:10078000083738603F1D386801279740B8438F68A5
:1007900007F40017B7F5001F02D10127974038432F
:1007A000044F0C373860521C0F881741002F7FF41C
:1007B00017AFF0BD000401404FF6FF71018000212A
:1007C000C17081600F21C16000210171817070478B
:1007D0000246002013690B400BB1012000E000200D
:1007E00070470AB1816100E081627047B0F5807F97
:1007F00006D10849097841F00401064A117008E061
:10080000B0F5006F05D10349097841F00201014AB2
:1008100011707047190000200148006870470000FF
:10082000F400002002480068401C0149086070473D
:10083000F40000200348007840F0010001490870EE
:10084000704700001900002010B50446B4F1804F35
:1008500013D10A480068401D08490860084600682E
:10086000322804D3002008600120054908700520C3
:1008700001F03CFF052001F011FF10BDEC0000204D
:10088000F00000207047000001460D4A0A446AB19A
:10089000B2F5806F0BD0B2F5744F03D0B2F5883F3C
:1008A0000AD105E00122074BDA7106E005E004E019
:1008B0000122054BDA7100E000BF00BF7047000065
:1008C00000BCFFBFF8000020100100201FB5044647
:1008D0003A4884421BD14115394801F0AFFB21153C
:1008E000374801F0ABFB252001F064F86846FFF7BC
:1008F00063FF4FF4C060ADF8000000208DF80400E5
:100900000320029069462E48FFF762FE55E02D480D
:1009100084421AD104212A4801F090FB082128487A
:1009200001F08CFB262001F045F86846FFF744FFF4
:100930000C20ADF8000000208DF804000320029088
:1009400069461F48FFF744FE37E01F4884421BD129
:1009500001151E4801F072FBE1141C4801F06EFB0A
:10096000272001F027F86846FFF726FF4FF4406084
:10097000ADF8000000208DF80400032002906946C5
:100980001248FFF725FE18E01148844215D1811561
:100990000E4801F053FB302001F00CF86846FFF7D9
:1009A0000BFFA015ADF8000000208DF80400032017
:1009B000029069460548FFF70BFE1FBD0038014055
:1009C000000801400044004000480040000C014085
:1009D0000054014010B586B0044602A8FFF7ECFEB3
:1009E0006748844233D10121052000F0E5F9012157
:1009F000880300F0E1F96015ADF8080002200490CA
:100A000001208DF80C000420059002A95D48FFF735
:100A1000DFFD2015ADF808000220049001208DF8BC
:100A20000C000420059002A95648FFF7D1FD2520AF
:100A30008DF8040002208DF8050000208DF80600D6
:100A400001208DF8070001A800F004F995E04E4858
:100A5000844233D10121052000F0AEF90121480480
:100A600000F08AF90420ADF808000220049001206B
:100A70008DF80C000420059002A94248FFF7A8FD5C
:100A80000820ADF808000220049001208DF80C0029
:100A90000420059002A93B48FFF79AFD26208DF817
:100AA000040002208DF8050000208DF806000120CA
:100AB0008DF8070001A800F0CDF85EE033488442CD
:100AC00033D10121092000F077F90121880400F0D9
:100AD00053F92015ADF808000220049001208DF88C
:100AE0000C000020059002A92948FFF771FDE014D1
:100AF000ADF808000220049001208DF80C000520BC
:100B0000059002A92248FFF763FD27208DF8040015
:100B100002208DF8050000208DF8060001208DF8D8
:100B2000070001A800F096F827E01A48844224D173
:100B30000121092000F040F90121880400F03CF96E
:100B4000A015ADF808000220049001208DF80C00DB
:100B50000620059002A90E48FFF73AFD30208DF8D7
:100B6000040002208DF8050000208DF80600012009
:100B70008DF8070001A800F06DF806B010BD000068
:100B80000038014000080140004400400048004097
:100B9000000C0140005401402DE9F04706460024B6
:100BA000A046A146B2462348504488B1B0F5806FB4
:100BB00019D0B0F5744F03D0B0F5883F26D11DE0B1
:100BC0001D4C201FD0F8008000F1070964251EE0AD
:100BD0001A4C201FD0F8008000F10709642500207E
:100BE000211F887113E0164C201FD0F8008000F1FF
:100BF000070964250020211F887108E0114C201F7F
:100C0000D0F8008000F10709642500E000BF00BFB4
:100C100074B12088A8420BDA002089F80000304621
:100C200000F0A0FEC7B22188481C208008F801709F
:100C3000BDE8F08700BCFFBFFC00002004010020DD
:100C40000C0100201401002000BFFEE700BFFEE7FA
:100C50007047000070B5002100230F22C47804B350
:100C6000154C246804F4E064C4F5E064210AC1F181
:100C70000403CA40447804FA03F184781440214301
:100C800009010E4C0678A155047804F01F050124D3
:100C9000AC4005786D11AD0005F1E025C5F80041C7
:100CA00009E0047804F01F050124AC40044D0678E7
:100CB000761145F8264070BD0CED00E000E400E040
:100CC00080E100E002490143024A116070470000E0
:100CD0000000FA050CED00E001460020034A5068D0
:100CE00020F0F00008435060704700000010024000
:100CF00001460020034A506820F4E0600843506039
:100D0000704700000010024001460020034A50686E
:100D100020F4605040EAC10050607047001002406B
:100D200030B50B461446002100220B4D69682A6C31
:100D30000A4D294022F0030208B1012804D11943C9
:100D400040EA04052A4303E040EA0305294322431D
:100D5000014D69602A6430BD00100240FFFFC0F7FA
:100D600001460020034A506820F003000843506009
:100D7000704700000010024029B1064AD2690243C0
:100D8000044BDA6104E0034AD2698243014BDA6121
:100D9000704700000010024029B1064A1269024360
:100DA000044B1A6104E0034A12698243014B1A6141
:100DB000704700000010024029B1064A92690243C0
:100DC000044B9A6104E0034A92698243014B9A61A1
:100DD000704700000010024029B1064AD268024361
:100DE000044BDA6004E0034AD2688243014BDA60C4
:100DF0007047000000100240014908607047000081
:100E0000000042420149086670470000000042426B
:100E1000F0B5002100BF0023002600240025484F24
:100E20007F68DFF820C107EA0C03454F7F6807F4AD
:100E30008036434F7F6AC7F3021503F000671FB97E
:100E4000022707EB934304E04FF4F877C7EB93478F
:100E50007B1C66B93A4F3F6C07F001071FB13A4F50
:100E600003FB07F20FE0394F03FB07F20BE0344FAF
:100E70007F6807F400371FB1354F03FB07F202E02C
:100E8000314F03FB07F22E4F3F6C07F0020707B10B
:100E900052082B4F7F6807F00C0131B1042909D0AB
:100EA00008290AD00C290DD10AE02A4F57F82570DD
:100EB00007600CE0254F076009E0234F076006E05C
:100EC000026004E0234F57F82570076000BF00BFA1
:100ED0001B4F7F6807F0F00109091F4F7C5C076812
:100EE000E7404760164F7F6807F4E061090A1A4F30
:100EF0007C5C4768E7408760114F7F6807F460516A
:100F0000C90A154F7C5C4768E740C7600C4FFF6A11
:100F100007F00F01114F7C5C4768B7FBF4F747619E
:100F2000074FFF6A07F4F871090901F00F07DFF8AE
:100F300030C03CF81740B2FBF4F70761F0BD000089
:100F40000010024000003C0800127A000024F40067
:100F500000093D00482A0008082A0008182A00084D
:100F6000282A000810B501460022002300204A115B
:100F7000012A02D1094C236806E0022A02D1074C5B
:100F8000236A01E0054C636A01F01F0201249440CA
:100F90001C400CB1012000E0002010BD00100240F8
:100FA0000248406800F00C0070470000001002404A
:100FB00038B5002000900024002500BF2120FFF755
:100FC000D1FF05460098401C00900098B0F5A06F36
:100FD00001D0002DF2D02120FFF7C4FF08B1012479
:100FE00000E00024204638BD002101098AB242F009
:100FF0008002044B1B6803F0800363EA0202014B8A
:101000001A6070470C28004030B5014600200022CD
:1010100000230024B1F5003F05D0B1F5802F02D0A8
:10102000B1F5002F07D10C4D2D68C5F30744002CF6
:1010300006DD012304E0084D383D2D6805EA010373
:10104000054D343D2D6805EA11121BB195B20DB165
:10105000012000E0002030BD4028004010B54FF4D2
:101060008040FFF7D1FF48B14FF48040FFF7BCFF4D
:101070004FF48010FFF70EFAFFF7DCFB10BD70474E
:1010800010B506480088002804DD04480088401E8A
:101090000249088001F08CFC10BD0000F200002025
:1010A000F0B500260027002400252048006840F005
:1010B00001001E49086000BF1C480068C0F34005DD
:1010C000641C15B9B4F5A06FF6D118480068C0F3D8
:1010D00040051DB9164817490860F0BDFFF734F9FF
:1010E0001548006820F003001349086008460068AE
:1010F00008600E4840680D494860084640684860EE
:101100000846406848600846406820F00300486090
:101110000846406840F00100486000BF034840684E
:1011200000F00C000428F9D100BFD6E700100240FF
:1011300000093D00240100200020024010B54FF0BE
:10114000FF30002807DB00F01F0201219140054A13
:10115000430942F8231000BFFFF764FBFFF790FF3D
:1011600010BD000080E200E02DE9F0413148324935
:1011700008600120FFF740FEFFF71AFF0646012E28
:1011800030D12E4F2C480068B900B0FBF1F52A4849
:101190000068B0FBF7F4A01E84042846FFF7ECF9C2
:1011A0000020FFF799FD0020FFF7AEFD0020FFF7BC
:1011B0009FFD0020FFF726FE002221460120FFF7B9
:1011C000AFFD0120FFF71EFE00BF3920FFF7CAFE6A
:1011D0000028FAD00320FFF7C3FD00BFFFF7E0FEB1
:1011E0000C28FBD10120FFF707FEFFF7E1FE0646C2
:1011F000012E17D11020FFF7B1F90120FFF7B0FD44
:1012000000BFFFF7CDFE0428FBD10020FFF7B4F9A3
:101210000020FFF761FD0020FFF776FD0020FFF7BB
:1012200067FD01E000BFFEE74FF44070FFF74AFDA5
:10123000BDE8F0810024F4002401002000127A00AF
:1012400010B52F48006840F470002D4908602D4803
:10125000406A40F004002B494862084640682A4929
:101260000840284948600846006828490840254940
:1012700008600846006820F480200860084640683E
:10128000234908401F4948604FF4E040C8624010BD
:1012900008630020486308641E4888600846C069E7
:1012A00040F08050C8611C48006800F48060B0F5D0
:1012B000806F0CD100BF1948006820F000701749FA
:1012C00008600846006840F00070086000BF1448DD
:1012D000006840F09000124908600846006800F479
:1012E000807020B10846006820F400700860FFF7A5
:1012F000D7FE4FF0006002498039086010BD000041
:1013000088ED00E00010024000C0FFF8FFFFF6FE8D
:10131000FFFF00070080BF0400700040201800405D
:101320000020024010B50121880700F035F838B1DF
:101330000121880700F016F84FF08040FFF784FA8B
:1013400010BD000010B50121054800F025F830B1AE
:101350000121034800F006F80148FFF775FA10BDB7
:1013600000040040CA43026170471AB183890B43ED
:10137000838102E083898B43838170470185828268
:10138000704721B1026842F00102026003E0026886
:1013900022F001020260704730B5024600200023AF
:1013A0000024156905EA0103958905EA010413B1D2
:1013B0000CB1012000E0002030BD00000A460021F1
:1013C0000168484B984211D0474B98420ED0B0F17B
:1013D000804F0BD0454B984208D0454B984205D0E2
:1013E000444B984202D0444B984203D121F0700103
:1013F00053881943414B984206D0414B984203D041
:1014000021F44071D3881943016093888385138840
:101410000385344B984202D0334B984201D1137A62
:1014200003860123838201682E4B984211D02E4BF4
:1014300098420ED0B0F1804F0BD02C4B984208D080
:101440002B4B984205D02B4B984202D02A4B984206
:1014500006D1537A13B141F4006101E021F4006137
:10146000254B984214D1937A13B141F4805101E095
:1014700021F48051D37A13B141F4005101E021F4F9
:101480000051137B13B141F4804101E021F480410C
:10149000144B98420ED0144B98420BD0B0F1804FB1
:1014A00008D0124B984205D0114B984202D0124BF3
:1014B000984206D1537B13B141F4004101E021F47D
:1014C000004101604168B0F1804F02D0084B984262
:1014D00006D1937B13B141F4807101E021F4807156
:1014E00041607047002C014000340140000400407E
:1014F00000080040000C0040003C0040001000408C
:101500000014004010B540F225511A4800F0A5F92A
:1015100038B140F22551174800F004F91548FFF79B
:101520003BFB40F22661134800F097F938B140F2D6
:101530002661104800F0F6F80E4800F01DF840F261
:1015400024410C4800F089F950B140F22441094887
:1015500000F076F9074800F005FA0648FFF794F91D
:101560006021044800F079F910B10248FFF78AF9C8
:1015700010BD00000054014010B504461248008818
:1015800010B11248006800B910BD1148844219D149
:101590000E480068401C0D4908600B480088401E3A
:1015A000094908800846008800B9EDE70748006847
:1015B0000178204600F0DBF9012240F22661044860
:1015C00000F0BFF800BFDFE7180100201C01002079
:1015D0000038014010B540F22551174800F03DF9A0
:1015E00038B140F22551144800F09CF81248FFF73A
:1015F000D3FA40F22661104800F02FF938B140F2DA
:1016000026610D4800F08EF80B48FFF7B5FF40F259
:101610002441094800F021F928B1074800F0A2F957
:101620000548FFF731F96021034800F016F910B1C1
:101630000148FFF727F910BD0038014010B540F20E
:1016400025511A4800F009F938B140F225511748E0
:1016500000F068F81548FFF79FFA40F2266113483A
:1016600000F0FBF838B140F22661104800F05AF85B
:101670000E48FFF781FF40F224410C4800F0EDF8DE
:1016800050B140F22441094800F0DAF8074800F070
:1016900069F90648FFF7F8F86021044800F0DDF822
:1016A00010B10248FFF7EEF810BD00000044004002
:1016B00010B540F225511A4800F0CFF838B140F289
:1016C0002551174800F02EF81548FFF765FA40F24B
:1016D0002661134800F0C1F838B140F22661104885
:1016E00000F020F80E48FFF747FF40F224410C4875
:1016F00000F0B3F850B140F22441094800F0A0F8DE
:10170000074800F02FF90648FFF7BEF860210448AB
:1017100000F0A3F810B10248FFF7B4F810BD0000C4
:101720000048004010B50022002340F66A14A14290
:1017300000D100BF0A1201249440A3B2DC4304800C
:1017400010BDF0B50346002400260025002040F619
:101750006A17B94200D100BF1846C1F3421401F024
:101760001F06012707FA06F5012C01D10C3004E011
:10177000022C01D1103000E014301AB107682F4359
:10178000076002E00768AF430760F0BD10B504468C
:101790002048844209D101218803FFF71DFB002165
:1017A0004FF48040FFF718FB32E01B48844209D118
:1017B00001214804FFF7F0FA00214FF40030FFF751
:1017C000EBFA25E01548844209D101218804FFF78E
:1017D000E3FA00214FF48020FFF7DEFA18E010480A
:1017E000844209D101214804FFF7F6FA00214FF4A1
:1017F0000030FFF7F1FA0BE00A48844208D10121DA
:101800008804FFF7E9FA00214FF48020FFF7E4FA9B
:1018100010BD000000380140004400400048004076
:10182000005001400054014021B1828942F400522D
:10183000828104E082894DF6FF731A4082817047ED
:1018400002460020B1F5007F00D100BF13880B4095
:101850000BB1012000E00020704770B50246002463
:1018600000230025002040F66A16B14200D100BFD7
:10187000C1F3421501F01F03012606FA03F3012DFF
:1018800002D19689334006E0022D02D1168A3340F8
:1018900001E0968A33400C12012606FA04F41688F9
:1018A000344013B10CB1012000E0002070BD0000F5
:1018B0002DE9F04786B005460F460024A24600BF3A
:1018C00000BF0026B88900B100BF2E462C8A4CF616
:1018D000FF700440F88804432C82AC894EF6F31064
:1018E0000440B88839890843798908430443AC81A6
:1018F000AC8A4FF6FF400440B8890443AC82684686
:10190000FFF786FA1448864205D01448864202D072
:101910001348864202D1DDF80CA001E0DDF808A0F2
:101920000AEBCA0000EB0A1039688900B0FBF1F835
:101930006420B8FBF0F004012009642101FB108948
:10194000322000EB0910B0FBF1F000F00F0004436F
:101950002C8106B0BDE8F0870038014000500140FE
:101960000054014001468888C0F308007047C1F365
:101970000802828070474FF4165101600021818077
:10198000C18001810C21418100218181704700BF0C
:10199000FEE700000FB4054B10B503A9044A0298F6
:1019A00000F036F810BC5DF814FB0000751E00084E
:1019B00020010020002817DB00F01F0201219140C8
:1019C0000A4A430942F8231000BF00BF00BFBFF31B
:1019D0004F8F00BF00BF00BF00BF00BF00BFBFF3FD
:1019E0006F8F00BF00BF00BF7047000080E100E0C4
:1019F00002E008C8121F08C1002AFAD170477047D8
:101A0000002001E001C1121F002AFBD17047000035
:101A10002DE9FF4F8DB00F460546002606E025282C
:101A20000BD0DDE90F1290476D1C761C287800283A
:101A3000F5D111B03046BDE8F08F0024A246A14692
:101A40000122EC4900E0044315F8013F203B02FA73
:101A500003F00842F7D128782A2810D06FF02F021F
:101A60002878A0F13001092914D80AEB8A0102EB89
:101A7000410144F0020400EB010A6D1CF0E701CFC4
:101A80005FEA000A03D544F40054CAF1000A44F0A6
:101A900002046D1C28782E2817D115F8010F44F088
:101AA00004042A280ED06FF02F022878A0F130010C
:101AB00009290AD809EB890102EB410100EB010970
:101AC0006D1CF2E757F8049B6D1C28786C280FD02A
:101AD00006DC4C2817D068280DD06A2814D104E001
:101AE000742810D07A280FD10DE044F400140AE0D5
:101AF00044F4801401E044F440146978814202D136
:101B000004F580146D1C6D1C2A786E2A1FD00CDC25
:101B1000632A31D004DC002A8BD0582A11D1A3E0EB
:101B2000642A68D0692A0CD165E0732A2ED004DCBF
:101B30006F2A73D0702A04D19BE0752A6FD0782A5F
:101B40006ED01046DDE90F129047761C50E1C4F3C9
:101B50000250022806D0032809D0042801CF09D05A
:101B6000066045E101CFF117C0E9006140E101CF16
:101B700006803DE106703BE117F8040B8DF800008C
:101B800000208DF80100EB46012003E057F804BB6C
:101B90004FF0FF3061074FF0000102D40DE008F173
:101BA0000101884649450FDA8045F8DB1BF808102B
:101BB0000029F4D108E008F1010188468142FADBEE
:101BC0001BF808100029F6D1DDE90F23AAEB080065
:101BD0008146214600F036F9304400EB080604E067
:101BE000DDE90F121BF8010B9047B8F10108F7D29D
:101BF00021464846F7E00A21C4F302534FF0000B98
:101C00000891022B04D001CFC117032B09D00AE0A1
:101C1000FF1D27F00707F7E8020108E032E01FE0A8
:101C200020E000B2C117042B01D140B2C117031E3E
:101C300071F1000307DA4FF0000CD0EB0C006CEBF5
:101C400001012D2302E0230504D52B238DF8243038
:101C5000012303E0E30701D02023F7E7984658E08B
:101C60000A2110E010210EE010204FF0000B089028
:101C70000CE010214FF0000B44F004044FF0080971
:101C8000089103E008214FF0000B0891C4F30253C0
:101C9000022B04D001CF0021032B06D006E0FF1D4C
:101CA00027F00707F7E8020103E080B2042B00D118
:101CB000C0B24FF0000823072BD5702A07D0DDF8FB
:101CC00020C08CF0100C5CEA0B0C05D00EE0402319
:101CD0008DF82430012308E050EA010306D03023B8
:101CE0008DF824308DF8252002239846DDF820C099
:101CF0008CF0080C5CEA0B0C0BD150EA010301D10B
:101D0000630706D530238DF824304FF00108A9F180
:101D10000109582A04D038A20B9208AA0A920BE0B3
:101D20003AA2F9E75B46089AFEF72AFA0B9B9B5CFE
:101D30000A9A521E0A92137050EA0102F2D10A98CE
:101D4000ADEB000000F1200B600702D524F48034D5
:101D500001E04FF00109D94502DDA9EB0B0000E0DD
:101D6000002000EB0B0141440890AAEB010AE003BC
:101D700006D4DDE90F232146504600F063F80644FF
:101D80004FF0000908E009A911F80900DDE90F1278
:101D9000904709F10109761CC145F4DBE0030CD53D
:101DA000DDE90F232146504600F04CF8064404E0DC
:101DB000DDE90F1230209047761C0899481E0890E4
:101DC0000029F5DC08E00A980A990078491C0A9174
:101DD000DDE90F129047761CBBF10001ABF1010B5E
:101DE000F1DC21465046DDE90F2300F019F80644E6
:101DF0006D1C1BE60928010030313233343536378B
:101E00003839616263646566000000003031323346
:101E100034353637383941424344454600000000E6
:101E20002DE9F041044600251E461746880404D4D7
:101E300005E039462020B0476D1C641EF9D52846C0
:101E4000BDE8F0812DE9F041044600251E4690468C
:101E5000C80301D5302700E02027880404D505E019
:101E600041463846B0476D1C641EF9D52846BDE88A
:101E7000F081000038B504460D46E0B20090012222
:101E80006946024800F056F8204638BD0038014047
:101E9000FFF76AF91E4800684FF47A72B0FBF2F15E
:101EA000481EB0F1807F00D31BE0481E4FF0E022B7
:101EB000506150170F22002804DB13071C0E154B2E
:101EC0001C5406E013071D0E134B00F00F04241FD3
:101ED0001D5500BF00204FF0E022906107201061E7
:101EE00000BF00F035F900F005FA0C4800F052FA96
:101EF0000BA0FFF74FFD00F0E3FC00F089FC05E0CC
:101F00000B48007810B1002009490870F8E700007C
:101F10002401002000E400E018ED00E0003801405A
:101F20006475736E636F614E534B434D4E0D0A00E3
:101F3000F00000202DE9F04107460D46164600242A
:101F40000EE000F08DFB295D3846FFF710FD00BF65
:101F500080213846FFF774FC0028F9D0601C84B259
:101F6000B442EEDB00F07CFB00BF40213846FFF7B7
:101F700067FC0028F9D00120BDE8F0812DE9FE437F
:101F80000646002500BFA8464FF6FF79032301222D
:101F900031462248FEF75AF900242DE001211F485E
:101FA000FEF7B7F90A2000F05DFB012822D10221DB
:101FB0001A48FEF747F910211848FEF743F9174869
:101FC000FEF7B2F92DF814003DF81400284485B24C
:101FD0003DF81400404502DD3DF8140000E04046A5
:101FE00080463DF81400484502DA3DF8140000E050
:101FF00048468146601CC4B2052CCFDBA5EB080027
:10200000A0EB0900032190FBF1F085B240F6E4401B
:102010006843070B3846BDE8FE8300000008024015
:1020200070B50446002506E0002000F0B1FC00F089
:1020300017FB681C85B2A542F6D370BDF0B5024609
:102040000C46002000210023254672E00126864030
:1020500006EA050100296BD0384E870856F827306C
:102060008607370F0F26BE403340354EB24201D1AE
:1020700000260AE0334EB24201D1012605E0324E7D
:10208000B24201D1022600E0032687073F0FBE407F
:102090009E4222D12D4E36688E432C4F3E603E1D0F
:1020A00036688E433F1D3E603E1D36688E433F1DA1
:1020B0003E603E1D36688E433F1D3E608607370FEB
:1020C0000F2606FA07F31D4E870856F827609E4331
:1020D0001A4F4FEA900C47F82C6016684FEA400CF4
:1020E000032707FA0CF7BE43166000F008064EB14E
:1020F000566A47074FEAD76C0F2707FA0CF73E439B
:10210000566208E0166A47074FEAD76C0F2707FAAE
:102110000CF73E431662566801278740BE4356605F
:10212000D6684FEA400C032707FA0CF7BE43D66087
:10213000401C25FA00F6002E88D1F0BD04000140B5
:1021400000080140000C0140001001400004014063
:1021500000B587B001210420FEF72EFE01210820E2
:10216000FEF72AFE01211020FEF726FE0121202085
:10217000FEF722FE01210846FEF71EFE0122110392
:102180005A48FEF72EFB002240215948FEF729FB52
:10219000002280215648FEF724FB03A8FEF70CFB23
:1021A0004FF41060ADF80C0000208DF81000059081
:1021B00003A94E48FEF70CFA4FF48050ADF80C001E
:1021C00000208DF810000120059003A94748FEF774
:1021D000FFF90120ADF80C0000208DF810000590EB
:1021E00003A94348FEF7F4F92020ADF80C000120C4
:1021F0008DF810000020059003A93D48FEF7E8F98E
:1022000048F2C400ADF80C0000208DF81000012049
:10221000059003A93648FEF7DBF94FF48070ADF85E
:102220000C0001208DF810000020059003A92F4814
:10223000FEF7CEF908210020FEF7AAF94FF48070CE
:10224000019000208DF808000C208DF80900012075
:102250008DF80A0001A8FEF737F94FF48070FEF7F9
:1022600019F917208DF8000002208DF801000020D8
:102270008DF8020001208DF803006846FEF7EAFCA5
:102280004FF40060ADF80C0001208DF81000002024
:10229000059003A91548FEF79BF90B210020FEF7D6
:1022A00077F94FF40060019000208DF808000C20B1
:1022B0008DF8090001208DF80A0001A8FEF704F945
:1022C0004FF40060FEF7E6F828208DF800000220A9
:1022D0008DF8010000208DF8020001208DF8030028
:1022E0006846FEF7B7FC07B000BD000000080140DB
:1022F000000C014010B586B0002401210846FEF70D
:102300003BFD1C4800681C49B0FBF1F0441E40F244
:10231000F310ADF80C00A0B2ADF808000020ADF845
:102320000E00ADF80A0002A94FF08040FFF746F812
:10233000A1B201229007FFF721F81C208DF80400BC
:1023400000208DF805008DF8060001208DF80700AB
:1023500001A8FEF77FFC0020084908700122114601
:102360009007FFF702F801218807FFF70AF806B087
:1023700010BD000024010020A0860100F000002014
:1023800010B504462046FEF7A1FA2046FFF7FEF9F5
:1023900010BD00001FB504462046FFF7F1FFA4481A
:1023A000844248D1FEF716FB6846FFF7E4FA4FF483
:1023B000E13000900020ADF80400ADF80600ADF863
:1023C0000800ADF80C000C20ADF80A006946204664
:1023D000FFF76EFA002240F225512046FFF7B1F9CF
:1023E000002240F227712046FFF7ABF9002260215E
:1023F0002046FFF7A6F9002240F224412046FFF7CD
:10240000A0F900212046FFF70FFA012240F22551E2
:102410002046FFF796F9012260212046FFF791F947
:10242000012240F224412046FFF78BF9012120468A
:10243000FFF7FAF9E2E07F48844248D1FEF7CAFA92
:102440006846FFF798FA4FF4164000900020ADF868
:102450000400ADF80600ADF80800ADF80C000C2043
:10246000ADF80A0069462046FFF722FA002240F242
:1024700025512046FFF765F9002240F227712046DA
:10248000FFF75FF9002260212046FFF75AF900228A
:1024900040F224412046FFF754F900212046FFF77F
:1024A000C3F9012240F225512046FFF74AF90122E3
:1024B00060212046FFF745F9012240F224412046E1
:1024C000FFF73FF901212046FFF7AEF996E05A48A1
:1024D000844248D1FEF77EFA6846FFF74CFA4FF483
:1024E000164000900020ADF80400ADF80600ADF8ED
:1024F0000800ADF80C000C20ADF80A006946204633
:10250000FFF7D6F9002240F225512046FFF719F9CE
:10251000002240F227712046FFF713F900226021C4
:102520002046FFF70EF9002240F224412046FFF733
:1025300008F900212046FFF777F9012240F22551E2
:102540002046FFF7FEF8012260212046FFF7F9F848
:10255000012240F224412046FFF7F3F801212046F2
:10256000FFF762F94AE03548844247D1FEF732FA74
:102570006846FFF700FA4FF4E13000900020ADF814
:102580000400ADF80600ADF80800ADF80C000C2012
:10259000ADF80A0069462046FFF78AF9002240F2AA
:1025A00025512046FFF7CDF8002240F22771204642
:1025B000FFF7C7F8002260212046FFF7C2F800228B
:1025C00040F224412046FFF7BCF800212046FFF7E7
:1025D0002BF9012240F225512046FFF7B2F80122E3
:1025E00060212046FFF7ADF8012240F22441204649
:1025F000FFF7A7F801212046FFF716F91048114907
:10260000086000208880C8710F48104908600020C9
:102610008880C8710E480F49086000208880C87102
:102620000D480E49086000208880C8711FBD000059
:102630000038014000440040004800400054014080
:1026400028010020F80000208C010020000100205B
:10265000F001002008010020540200201001002099
:102660007047000070B504460125FEF7D5F8064610
:1026700008E0FFF7F5FFFEF7CFF8801BA04201D975
:10268000002505E002210448FDF752FE0028F0D0A5
:1026900000BF284670BD00000008024010490978BC
:1026A000012916D10F49098841F28832914204DA92
:1026B0000C49098801440B4A11800B49098841F2F1
:1026C000883291420ADA084909880144064A118091
:1026D00004E00021034A1180034A11807047000082
:1026E00018000020D2000020D400002070B506465B
:1026F0004FF480714148FEF76BF808B9012000E003
:10270000002080F001043E480078012803D1012C0C
:1027100001D1002517E03A480078012807D134B9E3
:1027200001253849087000208870C8700BE03448D3
:10273000007810B90CB9022505E03148007810B9CD
:10274000012C00D103252E4804702E480078012862
:1027500052D135B1012D24D0022D26D0032D49D1DF
:1027600036E0294800783044274908700846007848
:10277000C82815DB002008702449088021484078CB
:10278000012803D102201F49087006E01D48407847
:10279000022802D103201B49087000201949487003
:1027A00029E000201949088025E0184800883044B5
:1027B0001649088008460088B0F5FA6F06DB4FF42A
:1027C000FA60088004200F49087000E000BF12E0A2
:1027D0000E4800881E2809DD0C480088B0F57A7F75
:1027E00004DA08484078401C064948700020064931
:1027F000087000E000BF00BF70BD0000000801408D
:10280000150000200000002014000020120000200D
:1028100010B5012023490870C1022348FDF7D8FFF5
:1028200008B9012000E00020012816D11420FFF78C
:10283000F7FB4FF400611C48FDF7CAFF08B90120FF
:1028400000E00020012808D118490870022018492A
:102850000870042000F02EF810BD4FF4807112486B
:10286000FDF7B6FF08B9012000E00020012817D1CC
:102870001420FFF7D5FB4FF480710B48FDF7A8FF3C
:1028800008B9012000E00020012809D100200749F3
:102890000870012006490870052000F00BF8DBE7FE
:1028A00000BFD9E7F0000020000801400F00002021
:1028B0002D0000200149087070470000180000201A
:1028C00010B500244FF47A702949088029490880FE
:1028D0000120FFF753FB044604EB4400C0F34F0410
:1028E00020B2254908800846B0F900002349B1F913
:1028F0000010884204DB4FF47A701E49088030E0F3
:102900001D48B0F900001E49B1F90010884204DBEF
:1029100040F2EE201749088023E01748B0F9000084
:102920001849B1F90010884204DB4FF4FA701149DC
:10293000088016E01048B0F900001349B1F9001002
:10294000884203DBFA200B4908800AE00A48B0F904
:1029500000000E49B1F90010884202DB0020054951
:1029600008800448B0F900000149088010BD00004B
:10297000860000208A0000208400002072000020D1
:10298000700000206E0000206C0000206A00002013
:1029900001B5FDF741FF02460099481C00B1491CF2
:1029A00000BFFDF739FF801A8842FAD308BD000046
:1029B0001348808800280EDD1148C07958B91048A6
:1029C0008079401CC0B20E498871232803DB0020A7
:1029D00088710120C8710B48808800280EDD0948E5
:1029E000C07958B907488079401CC0B20549887140
:1029F000232803DB002088710120C8717047000084
:102A00000001002008010020000000000102030472
:102A1000010203040607080901020406080A0C1053
:102A20002020202020202020010002000400060099
:102A300008000A000C001000200040008000000187
:102A40000001000100010001A0860100400D03000B
:102A5000801A060000350C0040420F0080841E00E2
:102A600000093D00842A0008000000202801000021
:102A7000F0190008AC2B0008280100209016000077
:102A8000001A000800000000000000000000000024
:102A90000000000000000000000000000000000036
:102AA0000000000000000000000000000000000026
:102AB0000000000000000000000000000000000016
:102AC0000000000000000000000000000100000005
:102AD00000000000000000000000000000002710BF
:102AE000000000003C001E0010000000000000007C
:102AF000420E880ED80E3C0F0000000000000000BF
:102B000000000000000000000000000000000000C5
:102B100000000000000000000000000000000000B5
:102B200000000000000000000000000000000000A5
:102B30000000000000000000000000000000000095
:102B40000000000000010000004400400000000000
:102B50000000000000000000000001000000000074
:102B60000000000000000000000000000000000065
:102B70000000000001000000000000000000000054
:102B80000000000000000000000000000000000045
:102B90000000000000000000000000000000000035
:0C2BA00000000000000000000024F40011
:0400000508000149A5
:00000001FF
