:020000040800F2
:10000000C82900205D010008FD0E0008E50E00086B
:10001000F90E000849040008B52A00080000000095
:10002000000000000000000000000000FD200008AB
:1000300035080008000000007301000819210008BD
:1000400077010008770100087701000877010008B0
:1000500077010008770100083908000885080008C2
:10006000A5080008C5080008E50800087701000891
:100070007701000877010008770100087701000880
:100080007701000877010008770100087701000870
:1000900077010008770100087701000805090008CA
:1000A0007701000877010008770100087701000850
:1000B0009D230008C5230008770100087701000888
:1000C0007701000877010008770100087701000830
:1000D000770100086D270008E1270008252800089F
:1000E0005908000877010008770100087701000827
:1000F0007701000877010008770100087701000800
:10010000A1260008770100087701000877010008A0
:1001100077010008770100087701000877010008DF
:1001200077010008770100087701000877010008CF
:1001300077010008770100087701000877010008BF
:100140007701000877010008DFF80CD000F05CF8B8
:1001500000480047CD310008C829002006488047E4
:1001600006480047FEE7FEE7FEE7FEE7FEE7FEE79C
:10017000FEE7FEE7FEE7FEE7ED2100084901000883
:10018000D2B201E000F8012B491EFBD270470022D9
:10019000F6E710B513460A4604461946FFF7F0FF86
:1001A000204610BD2DE9F05F0546002092469B4693
:1001B00088460646814640241BE02846414647467D
:1001C000224600F048F853465A46C01A914110D3CF
:1001D00011461846224600F02FF82D1A67EB010849
:1001E0004F4622460120002100F026F817EB0009B7
:1001F0004E41201EA4F10104DFDC484631462A4668
:100200004346BDE8F09F00001CB50948009009482E
:1002100001900546009C06E0E06840F0010394E888
:10022000070098471034AC42F6D3FFF791FF000067
:10023000CC4C0008EC4C0008202A04DB203A00FAE1
:1002400002F1002070479140C2F1200320FA03F32D
:10025000194390407047202A04DB203A21FA02F02B
:100260000021704721FA02F3D040C2F120029140F0
:1002700008431946704770B58D1810F8014B14F0FB
:10028000030201D110F8012B231106D110F8013B14
:1002900003E010F8016B01F8016B521EF9D1ABB10C
:1002A00010F8012B04F00C048A1A0C2C03D0A2EBDA
:1002B00084129B1C08E010F8014BA2EB0422F8E723
:1002C00012F8014B01F8014B5B1EF9D5A942D4D3BA
:1002D000002070BD7F2222EA01010160704700000A
:1002E00010B540B10846012101F076FB0020BDE8C1
:1002F000104001F067BB0C464FF48070002101F004
:100300006BFB2046BDE8104001F05CBB122907D111
:10031000D0F85CC02CF0070C4CEA030CC0F85CC0B1
:10032000B0B501EB410C4FF0100E092988BFACF1BC
:100330001E0C88BF4FF00C0E50F80E40072505FA32
:100340000CF5AC4303FA0CF323432C256FF0400467
:1003500040F80E300D2A38BF302538BF6FF0220428
:1003600002EB8203072A3CBF34256FF004041A19FC
:1003700043591F249440A343914019434151B0BDB8
:100380008268002922F0010218BF013282607047A2
:100390008268002922F4A00218BF02F5A002826040
:1003A000704700008168406DC9B2B0FA80F0400922
:1003B00000EA910070470000C06C80B270470000F6
:1003C0000068084018BF012070470000806D084099
:1003D00018BF01207047000010B540F66002C4F25B
:1003E0000202136843F02803136042684FF6FF636C
:1003F000CFF6F0731A400B7891F801C042EA03225D
:1004000091F80CE0426082684FF2FD73CFF6F17311
:10041000D1E901141A402243114341EA4C018160A1
:10042000C16AAEF1010221F47001D2B241EA025177
:10043000C16210BD416D002918BF7047816841F04D
:100440000401816070470000FEE7000010B56E20D7
:1004500000F046F904466C20032100F055F92046CF
:1004600010BD00002DE9F041662000F039F9044686
:100470006D2000F035F905466A2000F031F9C4F32B
:100480004016002E18BF4FF0FF3685EA06012022E5
:100490008B0602EA910C4FF0010301F0180558BFDA
:1004A000C1F3801301F0040401F0020701F001021E
:1004B0000CEB0501214439441144704041EA030822
:1004C0006FF07C0101EA800CC0F3011100F0080319
:1004D00041EA53010CEB050300F0180043EA8000E9
:1004E0002044384484186A2000F00EF96B204146FD
:1004F00000F00AF984EA0600C0B2BDE8F08100000D
:10050000A2B1F0B581B00C46054656424FF0FF301F
:10051000471C2044EA194178D0B200F0F5F8F019F0
:1005200001303846F4D101B0BDE8F04001207047F9
:1005300010B50446662000F0D3F8012C05D03CB974
:100540004FF6FE71C0F2FF3100E0012161F39F1010
:10055000C1B26620BDE8104000F0D6B80146682060
:1005600000F0D2B810B504460D2000F0B9F800F044
:100570001F01002C18BFE0310D20BDE8104000F035
:10058000C3B8000080B5692000F0AAF800F0FA01B5
:100590006920BDE8804000F0B7B8000080B5692050
:1005A00000F09EF840F005016920BDE8804000F0B1
:1005B000ABB80000B0B56020082100F0A5F8002419
:1005C000612000F08DF800F00F00052808D0C82049
:1005D000651C02F077FD312C2C46F1D30020B0BD14
:1005E0000120B0BDB0B56020102100F08DF80024CE
:1005F000612000F075F800F00F00012808D0C82035
:10060000651C02F05FFD312C2C46F1D30020B0BDFB
:100610000120B0BDB0B56020022100F075F80024C3
:10062000612000F05DF800F00F00022808D0C8201B
:10063000651C02F047FD312C2C46F1D30020B0BDE3
:100640000120B0BDB0B56020402100F05DF800246D
:10065000612000F045F800F00F00062808D0C820FF
:10066000651C02F02FFD312C2C46F1D30020B0BDCB
:100670000120B0BDB0B57F20FF2100F045F8142067
:1006800002F00AFD6020022100F03EF8002400BFC5
:10069000612000F025F800F00F00022806D0C820E5
:1006A000651C02F00FFD312C2C46F1D3612000F0C7
:1006B00017F800F0CF0000F11001612000F024F8DD
:1006C0000D2000F00DF800F01F010D2000F01CF8C7
:1006D000BDE8B040FFF7C6BE02F0FEB902F0EEBAC8
:1006E00080B582B0FF218DF807100DF1070102F0EF
:1006F00045FA9DF8070002B080BD00007F20FF2171
:1007000000F002B802F01CBC02F07EBB01684FF69C
:10071000FE7211405722C4F2020201600021904291
:10072000016041608160C16010DC2F21C4F20201D0
:1007300088421DDC0821C4F20201884233D01C210A
:10074000C4F2020188423ED1F02036E07F21C4F29B
:100750000201884219DC5821C4F20201884224D0E7
:100760006C21C4F2020188422DD14FF4700024E0C4
:100770003021C4F2020188421AD04421C4F202019D
:10078000884220D14FF4704017E08021C4F202016A
:10079000884210D09421C4F20201884218BF7047E9
:1007A0004FF0704009E00F2007E04FF4702004E0A4
:1007B0004FF4706001E04FF070600421C4F2020158
:1007C0000A6810430860704702684FF6FE7C42F0EA
:1007D0000103002908BF02EA0C0303607047000010
:1007E0002DE9F047026847F6F073D1E9026A9A43AF
:1007F00001F11007B0CF01F11C0E3243D1E900899D
:100800009EE80A501A4322432A433A43114341EADD
:100810000C0141EA0E010160C0F804A0C0F8088094
:10082000C0F80C90BDE8F087002B08BF1846106197
:10083000704700007047000080B5012000F07EF88E
:10084000002808BF80BD012000F072F80120BDE83B
:10085000804000F071B9000010B54FF4806405E0ED
:10086000B4F5804F4FEA440488BF10BD204600F025
:1008700065F80028F4D0204600F05AF8A0B200F045
:100880005BF9EDE780B5022000F058F8002808BFBA
:1008900080BD022000F04CF80220BDE8804000F04E
:1008A0004BB9000080B5042000F048F8002808BFCC
:1008B00080BD042000F03CF80420BDE8804000F03A
:1008C0003BB9000080B5082000F038F8002808BFC8
:1008D00080BD082000F02CF80820BDE8804000F022
:1008E0002BB9000080B5102000F028F8002808BFC0
:1008F00080BD102000F01CF81020BDE8804000F002
:100900001BB9000010B5202406E000BFB4F5807FBD
:100910004FEA440488BF10BD204600F00FF80028BD
:10092000F4D0204600F004F8A0B200F005F9EDE79D
:1009300040F21441C4F201010860704740F20041E6
:10094000C4F201010A6849690240084018BF012049
:10095000002A18BF012210407047000042F2000137
:10096000C4F202010A6822F010020A600A68104309
:100970000860704742F20001C4F202010A6802F006
:10098000F8021043086070472DE9F04F83B0B1F8CA
:1009900000A0BAF1000F00F0B88000F11802009238
:1009A00000F128024FF0010B4FF00008002701264C
:1009B000019209E03AFA06F206F1010607F1020790
:1009C00008F1040800F0A180721E0BFA02FE1EEA74
:1009D0000A0FEFD0D1F808C00292BCF1120F1FD855
:1009E0000D230BFA0CF2C0F204031A4218D008F0DF
:1009F0001C020F2303FA02F9029B55461B074FF016
:100A0000240358BF202350F803B0D1F80CA02BEAE0
:100A100009040AFA02F24FF0010BAA462243C2501F
:100A2000036803220CF00F04BA409343BC402343F5
:100A30000360C4680B79944303F00305BD402C4365
:100A4000BCF1030FC46018BF1CF0030409D0C46AD2
:100A50008D78D24305F00305224005FA07F42243BE
:100A6000C2628268CC78029D04F0010422EA0E0280
:100A7000AC4022438260019A022B02D0012B04D1A8
:100A8000009A136843EA0E031360BCF1120F6FEA79
:100A90000E090DD80BFA0CF212F0061F1FBF4268A8
:100AA00002EA0902CCF30013AB401CBF1A434260B8
:100AB0005FEACC027FF57EAF40F20045C4F201054B
:100AC0002C685FEACC3344EA0E0258BF04EA0902FC
:100AD0002A606C685FEA8C3344EA0E0258BF04EA6D
:100AE00009026A60AC685FEACC2344EA0E0258BF90
:100AF00004EA0902AA60EC685FEA8C2344EA0E0269
:100B000058BF04EA0902EA6054E703B0BDE8F08F79
:100B10004FF6FF71016000210F22C0E9021201713E
:100B2000704700000069084018BF012070470000AE
:100B300081627047816170470146B0F5004F03D074
:100B4000B1F5804F18BF704740F60040C4F2010075
:100B5000FFF7E8BF41F2C040C2F200000168013176
:100B600001607047B0F1804F00D0704741F2BC4245
:100B700041F2B840C2F20002C2F2000013680168FC
:100B800001330131142B0160136007D3002313607C
:100B900040F6D312C2F2000201231370322938BF8B
:100BA00070470021016040F6D410C2F2000001211C
:100BB000017070477047000043F60001C4F2010164
:100BC00088420BD045F20041C4F20101884218BFAF
:100BD000704740F60470C2F2000003E040F6FC608B
:100BE000C2F20000073001210170704770B584B077
:100BF00043F2FF71C4F2010188421FDC44F200415C
:100C0000C4F20001884237D044F60001C4F200016A
:100C1000884267D140F60000C4F2010000F580640C
:100C200020464FF4806102F0EFFE20464FF4006151
:100C300002F0EAFE4FF4406680203BE045F20041BE
:100C4000C4F20101884226D043F60001C4F201013A
:100C5000884247D140F60004C4F2010420464FF414
:100C6000007102F0D1FE20464FF4806102F0CCFE0C
:100C70004FF4C06620201DE040F60004C4F20104D9
:100C80002046042102F0C0FE2046082102F0BCFEEE
:100C90000C2640200EE040F60000C4F2010000F5F2
:100CA000806420464FF480714FF4807602F0ACFEF1
:100CB0004FF480304EF28411CEF2000108606D4690
:100CC000BFF34F8F2846BFF36F8FFFF721FF002040
:100CD0008DF804000320029020462946ADF80060FC
:100CE000FFF752FE04B070BD2DE9F04186B0044616
:100CF00002A8FFF70DFF43F2FF70C4F20100844227
:100D000039DC44F20040C4F20000844260D044F672
:100D10000000C4F20000844240F0C7800920012195
:100D2000012600F0D1FE4FF48020012100F0B4FE36
:100D30004FF4806040F60044ADF808000020C4F293
:100D4000010402AD022705902046294604978DF83C
:100D50000C60FFF719FE4FF40060ADF808000520A5
:100D600005902046294604978DF80C60FFF70CFE8D
:100D700040F2272093E045F20040C4F20100844293
:100D800070D043F60000C4F20100844240F08D8030
:100D900005200121012400F097FE4FF4804001213D
:100DA00000F092FE4FF40070ADF8080002200490AD
:100DB0000420059040F60040C4F20100A0F58060D8
:100DC00002A98DF80C40FFF7DFFD06B0BDE8F08109
:100DD000212001214FF0010800F076FE4FF4003091
:100DE000012100F059FE40F600444FF48040C4F267
:100DF0000104ADF80800022004F5006502AE04907D
:100E00000427284631468DF80C800597FFF7BCFD76
:100E10004FF40040ADF808001220049028463146F7
:100E20008DF80C800597FFF7AFFD4FF40070ADF81B
:100E3000080000208DF80B0020463146CDF81080C8
:100E4000FFF7A2FD40F22620C0F20010019001A899
:100E500000F056F820464FF40071FFF769FE06B027
:100E6000BDE8F08109200121012400F02DFE4FF49E
:100E70008020012100F028FE4FF48070ADF80800BA
:100E8000022004900620059040F60040C4F20100C4
:100E900002A98DF80C40FFF777FD40F23020C0F238
:100EA0000010019001A800F02BF806B0BDE8F08119
:100EB00044F20041C4F2000188420BD044F6000124
:100EC000C4F20001884218BF704740F61470C2F2A5
:100ED000000003E040F60C70C2F200000630002172
:100EE00001707047FEE7000043F20000C4F200000A
:100EF0004AF6AA2101607047FEE700007047000033
:100F000010B5C17800294EF20011CEF200011AD0BE
:100F10004EF60C52CEF200021268072323EA122288
:100F20000F23C2F1040C23FA02F24378847890F87C
:100F300000E003FA0CF322401A43120101EB0E0306
:100F400083F8002300E080310078012300F01F02C5
:100F500003FA02F2C0F3421041F8202010BD000055
:100F600040F080604EF60C5140F0FD70CEF2000172
:100F70000860704740F618224FF0000CC2F20002E1
:100F8000002818BF4FF0FF304FF0FF33D118013366
:100F90007F2B4870FAD10CF1010CBCF1080F02F163
:100FA000800208BF7047EFE770B54424C4F2020422
:100FB0002046FFF7ABFB43F20005C4F2010540F603
:100FC000DC1140F6182E05F10C00C2F20001C2F24D
:100FD000000E10234FF4806CC1E9000EC1E9023C01
:100FE00020204FF4805300228026C1E908032046C8
:100FF000C1E90426C1E906228A62FFF7F1FB28460F
:101000000221012201F03CF805F550410D20224655
:101010000123FFF709FC20460121BDE87040FFF7DE
:10102000D3BB000080B500F0EDFBBDE8804000F0D0
:1010300003BA00002DE9F04F86B098460F9B434558
:1010400002D206B0BDE8F08F8B1D40F61827DBB248
:101050000C1DC2F2000786461030E4B28D1C07EB6F
:10106000C3130590EEB2A3F1800007EBC413009008
:10107000A3F1800007EBC6130190A3F1800007EBFA
:10108000C1110390A1F180000490AEEB0810AEF105
:10109000800C02907046434609E000BF01330F9C6C
:1010A000D9B20CF1100C8C4200F11000C9D340F2FF
:1010B0000401DCB2C2F2000101EB841640F20431FB
:1010C000C2F20001A6F1200A01EB84165FEA0E715C
:1010D000A6F1200926D0A4EB0801059C04EB01161B
:1010E0007F2E45DC0499012A51FA80FB00F0A28092
:1010F000022AD3D1002600BF59F8201F002E4BF83A
:10110000801FD9F80410D9F80C40D9F8085006F11E
:101110000106CBF80C40CBF80850CBF80410EBD00C
:10112000BCE700BFA4EB08010EEB01167F2E41DCEB
:101130000299012A01EB0411049C01F0F00104EB77
:10114000010600F0CD80022AA8D1002459F8201F02
:10115000002C46F8801FD9F80410D9F80C50D9F8A3
:10116000087004F10104F560B7607160EED095E796
:101170000CF0F001FF2E01F1100439DC0399012A73
:1011800051FA84F600F0C080022A7FF487AF002471
:1011900059F8201F002C46F8801FD9F80410D9F800
:1011A0000C50D9F8087004F10104F560B760716063
:1011B000EED073E7FF2E54DC0399012A51FA8CF626
:1011C00000F0D680022A7FF469AF002459F8201F6E
:1011D000002C46F8801FD9F80410D9F80C50D9F823
:1011E000087004F10104F560B7607160EED055E756
:1011F000B6F5C07F54DA00F0F001019C1031012AED
:1012000054FA81F600F0C880022A7FF447AF002428
:1012100059F8201F002C46F8801FD9F80410D9F87F
:101220000C50D9F8087004F10104F560B7607160E2
:10123000EED033E7002400BF5AF8201F002C4BF8F3
:10124000801FDAF80410DAF80C60DAF8085004F1BC
:101250000104CBF80C60CBF80850CBF80410EBD0AD
:101260001CE7B6F5C07F63DA0199012A51FA80F6CE
:1012700000F0A680022A7FF411AF002459F8201F45
:10128000002C46F8801FD9F80410D9F80C50D9F872
:10129000087004F10104F560B7607160EED0FDE6FE
:1012A000B6F5007FBFF6FAAE0099012A51FA84F62E
:1012B00000F09A80022A7FF4F1AE002459F8201F32
:1012C000002C46F8801FD9F80410D9F80C50D9F832
:1012D000087004F10104F560B7607160EED0DDE6DE
:1012E000002400BF5AF8201F002C46F8801FDAF8AF
:1012F0000410DAF80C50DAF8087004F10104F56013
:10130000B7607160EED0C9E6002400BF5AF8201F14
:10131000002C46F8801FDAF80410DAF80C50DAF8DE
:10132000087004F10104F560B7607160EED0B5E6B5
:10133000B6F5007FBFF6B2AE0099012A51FA8CF6DD
:1013400066D0022A7FF4AAAE002400BF59F8201FFD
:10135000002C46F8801FD9F80410D9F80C50D9F8A1
:10136000087004F10104F560B7607160EED095E695
:10137000002400BF5AF8201F002C46F8801FDAF81E
:101380000410DAF80C50DAF8087004F10104F56082
:10139000B7607160EED081E6002400BF5AF8201FCC
:1013A000002C46F8801FDAF80410DAF80C50DAF84E
:1013B000087004F10104F560B7607160EED06DE66D
:1013C000002400BF5AF8201F002C46F8801FDAF8CE
:1013D0000410DAF80C50DAF8087004F10104F56032
:1013E000B7607160EED059E6002400BF5AF8201FA4
:1013F000002C46F8801FDAF80410DAF80C50DAF8FE
:10140000087004F10104F560B7607160EED045E644
:10141000002400BF5AF8201F002C46F8801FDAF87D
:101420000410DAF80C50DAF8087004F10104F560E1
:10143000B7607160EED031E6B0B541F20004C4F29D
:10144000010420464FF48041FFF772FB0A2001F0AF
:1014500023FE20464FF48041FFF76CFB20464FF4FB
:101460000041FFF765FB04F500552846022100F016
:101470000FFE58B1642001F00FFE2846AE2100F0A7
:101480000DFE20464FF40041FFF754FB20464FF479
:101490000041FFF74DFB2846022100F0F9FD58B14D
:1014A000642001F0F9FD2846D52100F0F7FD204623
:1014B0004FF40041FFF73EFB20464FF40041FFF799
:1014C00037FB2846022100F0E3FD58B1642001F00B
:1014D000E3FD2846802100F0E1FD20464FF4004165
:1014E000FFF728FB20464FF40041FFF721FB284679
:1014F000022100F0CDFD58B1642001F0CDFD284659
:10150000812100F0CBFD20464FF40041FFF712FB94
:1015100020464FF40041FFF70BFB2846022100F064
:10152000B7FD58B1642001F0B7FD28467F2100F0D7
:10153000B5FD20464FF40041FFF7FCFA20464FF47A
:101540000041FFF7F5FA2846022100F0A1FD58B14D
:10155000642001F0A1FD28468D2100F09FFD20466A
:101560004FF40041FFF7E6FA20464FF40041FFF741
:10157000DFFA2846022100F08BFD58B1642001F00B
:101580008BFD2846142100F089FD20464FF40041D0
:10159000FFF7D0FA20464FF40041FFF7C9FA28467A
:1015A000022100F075FD58B1642001F075FD284658
:1015B000202100F073FD20464FF40041FFF7BAFAF6
:1015C00020464FF40041FFF7B3FA2846022100F00D
:1015D0005FFD58B1642001F05FFD2846002100F056
:1015E0005DFD20464FF40041FFF7A4FA20464FF47A
:1015F0000041FFF79DFA2846022100F049FD58B14D
:10160000642001F049FD2846212100F047FD2046D5
:101610004FF40041FFF78EFA20464FF40041FFF7E8
:1016200087FA2846022100F033FD58B1642001F00A
:1016300033FD2846002100F031FD20464FF40041E3
:10164000FFF778FA20464FF40041FFF771FA284679
:10165000022100F01DFD58B1642001F01DFD284657
:101660007F2100F01BFD20464FF40041FFF762FA96
:1016700020464FF40041FFF75BFA2846022100F0B4
:1016800007FD58B1642001F007FD2846222100F033
:1016900005FD20464FF40041FFF74CFA20464FF479
:1016A0000041FFF745FA2846022100F0F1FC58B14D
:1016B000642001F0F1FC2846002100F0EFFC2046F8
:1016C0004FF40041FFF736FA20464FF40041FFF790
:1016D0002FFA2846022100F0DBFC58B1642001F00B
:1016E000DBFC2846072100F0D9FC20464FF40041DE
:1016F000FFF720FA20464FF40041FFF719FA284679
:10170000022100F0C5FC58B1642001F0C5FC284658
:10171000C82100F0C3FC20464FF40041FFF70AFA4D
:1017200020464FF40041FFF703FA2846022100F05B
:10173000AFFC58B1642001F0AFFC2846A12100F0B5
:10174000ADFC20464FF40041FFF7F4F920464FF47A
:101750000041FFF7EDF92846022100F099FC58B14D
:10176000642001F099FC2846A42100F097FC204653
:101770004FF40041FFF7DEF920464FF40041FFF738
:10178000D7F92846022100F083FC58B1642001F00B
:1017900083FC2846A62100F081FC20464FF400413E
:1017A000FFF7C8F920464FF40041FFF7C1F928467A
:1017B000022100F06DFC58B1642001F06DFC284658
:1017C000AF2100F06BFC20464FF40041FFF7B2F967
:1017D00020464FF40041FFF7ABF92846022100F004
:1017E00057FC58B1642001F057FC2846562100F000
:1017F00055FC20464FF40041FFF79CF9BDE8B0408E
:10180000FFF7D2BB2DE9F0410020002700F006F9D8
:10181000012001214FF0010800F032F905200121DB
:1018200000F052F94FF48050012100F04DF940F6DC
:101830000825C2F200052846FFF76AF9A02040F605
:10184000000428800220C4F20104C5E902072046F2
:101850002946EF70FFF798F84FF4604004F50066F2
:10186000288030462946EF70C5F80880FFF78CF8CD
:101870004FF40040288020462946EF70C5F80880C4
:10188000FFF782F820464FF40041FFF753F9204656
:10189000A021FFF74FF930464FF40051FFF748F908
:1018A00040F61C614CF20000C2F20001C0F20410CC
:1018B00008604FF0007088600820C860072004F5B9
:1018C0002054088220464F6000F0EAFB20460121A8
:1018D00000F00AFC20460121BDE8F04100F0C6BB43
:1018E0002DE9F04F1778002F08BFBDE8F08F44F2C4
:1018F000506440F6182EC0F6000444F228494FF018
:10190000000CC2F2000EA4F50078C0F60009934660
:1019100009E000BF0CF1010C5FFA8CF4145D52FA7F
:101920008CFB002C3FD0CCB2C5B205EBC414CBB1BC
:101930007444013C6FF0BF059BF8007007EB47074C
:1019400005EB47074F4497F801A0013515F1BA0799
:1019500004F801AFF0D10630C4B2782C84BF013155
:101960000020D7E70EEB04074FF0000A444600BF03
:10197000002500BF9BF8006004EB0616765D7E55DF
:101980000135082DF6D1BAF1000F0AF1010A07F16D
:10199000800704F10804EBD00830C4B2782C84BF6F
:1019A00002310020B6E7BDE8F08F000041F22C02C2
:1019B000C4F202021368084323F47C331843106016
:1019C0007047000041F22C01C4F202010A6822F0C3
:1019D0000F0210430860704741F22C02C4F2020269
:1019E0001368002908BF20F4807023F4F8710843BD
:1019F0001060704741F20401C4F202010A6822F04B
:101A0000F00210430860704741F20401C4F2020181
:101A10000A6822F4E06210430860704741F2040152
:101A2000C4F202010A6822F4605242EAC00008606F
:101A30007047000080B541F2040EC4F2020EDEF8D9
:101A400000C0DEF83C3002282CBF0143024323F0E3
:101A5000030010434FF6FF72CFF2C07202EA0C028D
:101A60001143CEF80010CEF83C0080BD41F20401D5
:101A7000C4F202010A6822F00302104308607047B2
:101A8000002941F21401C4F202010A680CBF22EAE3
:101A90000000104308607047002941F21C01C4F2A5
:101AA00002010A680CBF22EA000010430860704778
:101AB000002941F21001C4F202010A680CBF22EAB7
:101AC0000000104308607047002941F21801C4F279
:101AD00002010A680CBF22EA000010430860704748
:101AE000002941F20C01C4F202010A680CBF22EA8B
:101AF00000001043086070470021C4F242210860D2
:101B0000704700006021C4F2422108607047000065
:101B1000B0B541F20401C4F202010B6840F20F2596
:101B200005EA93451B010C686FF4F77342F200421B
:101B300041F2002CD1F820E058BF0223C0F2F40299
:101B4000C0F27A0CE4032B4405D4CC6BE407644662
:101B500008BF144607E00C68A40340F60014C0F266
:101B60003D0458BF6446CD6B6343C5F340040D6824
:101B7000E340C5F38104CEF3021EDFE804F002095E
:101B8000060819A252F82E2002E0624600E01A462A
:101B900002600D6844F64044C5F30315C0F6000426
:101BA000655DEA4042600D68C5F30225655D22FA75
:101BB00005F585600D68C5F3C225655D11A422FA9F
:101BC00005F5C5608D6A05F00F05655DB2FBF5F2A0
:101BD0004261896A0FA2C1F3031132F81110B3FBFD
:101BE000F1F10161B0BD00BFA0860100400D03000E
:101BF000801A060000350C0040420F0080841E0051
:101C000000093D0001020406080A0C1020202020D3
:101C100020202020010002000400060008000A0025
:101C20000C001000200040008000000100010001B5
:101C300000010001420941F20001012AC4F202013F
:101C400003D0022A14BF24312031096800F01F009C
:101C500021FA00F000F001007047000041F204009A
:101C6000C4F20200006800F00C00704781B041F23D
:101C70000000C4F202000021009100BF0168009A38
:101C800001320092009AB2F5A06F02D011F0020169
:101C9000F4D00068C0F3400001B0704700F038B8DD
:101CA00010B500F07FF802280BD020BB40F67C6016
:101CB000C2F2000008214FF0FF3200F09FF900202F
:101CC00010BD40F6C810C2F20000047840F67C60F7
:101CD000C2F2000008214FF0FF3200F08FF92046D9
:101CE000002C08BF10BD40F67061C2F200010A88E6
:101CF00001320A8010BD002010BD000040F67C605B
:101D0000C2F2000008214FF0FF3200F077B9000066
:101D100080B5FEF7E1FCFEF7ADFC44F66D41C0F680
:101D2000000100200C22FEF7EBFB44F69941C0F6BF
:101D300000010C200C22FEF7E3FB44F69141C0F6B3
:101D4000000118200822FEF7DBFB44F67941C0F6BB
:101D5000000120201822FEF7D3FB44F65041C0F6C4
:101D6000000138201D22FEF7CBFB44F6A541C0F64A
:101D7000000155200B22FEF7C3FB0120FEF7D8FB24
:101D80003F20FEF7EBFB0020FEF7ECFB4520802117
:101D9000FEF7BAFC46200821FEF7B6FCBDE88040FD
:101DA000FEF720BCB0B540F66764C2F200042078AC
:101DB000092800F2BB80DFE800F005852B3307928D
:101DC000B27DBB0D0020B0BDFEF70CFC00202070E2
:101DD0000320B0BDFEF792FC142001F05DF9FEF780
:101DE00019FC0120FEF7A4FB3F20FEF7B7FB002003
:101DF0000025FEF7B7FB45208021FEF785FC462035
:101E00000821FEF781FCFEF7EDFB06202570B0BD32
:101E10006D20FEF765FCC00700F08880032084E099
:101E2000FEF7F8FB40F66865C2F200052868092154
:101E3000FEF754FC28680178082940F0D1804178E9
:101E4000AA2940F0CD808178552940F0C980C17819
:101E5000282900F09C8027297AD0262940F0C080CC
:101E60000179092940F0BC804179022940F0B8800D
:101E70008179002940F0B480C179302940F0B080E8
:101E8000007AD22840F0AC8040F65160C2F20000E7
:101E90000121017040F62E60C2F20000017001F0D5
:101EA00041F9002800F0978001F03CF9012800F08A
:101EB000948095E0FEF7D6FAFEF794FB00202070A0
:101EC0000420B0BDFEF7A6FBFEF7CCFAFEF75AFBE6
:101ED000FEF7BCFAFEF76EFB80B3022025E0FEF7AA
:101EE00099FBFEF7BFFAFEF759FBFEF7AFFA40F693
:101EF0006C6040F6CA11C2F20000C2F20001006834
:101F00000988FEF7FFFB6E20FEF7EAFB80075CBF47
:101F100009202070FEF796FB80B1062005E06A20BC
:101F2000FEF7DEFB000701D5072020700120B0BDC1
:101F3000FEF758FB002020700520B0BD092020705E
:101F400044F6BA40C0F6000002F05CFA0120B0BDD1
:101F50000179092944D14179022941D181790029A6
:101F60003ED1C17931293BD1007AD32838D140F60E
:101F70005160C2F200000121017040F62E60C2F2F1
:101F8000000000210170022001F05EFA28E00179D2
:101F9000092925D14179032922D1817901BBC17950
:101FA00033291DD1007ADD281AD140F65160C2F2E2
:101FB00000000121017040F62E60C2F200000170A5
:101FC00001F0B0F828B101F0ADF8012808D101F016
:101FD00095F9002002E001F091F9012001F0A0FA4A
:101FE000FEF740FA40F66661C2F200010870FEF7A3
:101FF000F9FA002020700220B0BD000040F66861B0
:10200000C2F20001086040F66760C2F200000121E0
:10201000017070472DE9F04144F20047C4F2000717
:1020200007F548480D46064640464FF40071FEF756
:1020300081FD0024012D98BF012500BF315D384688
:1020400000F02AFD3846802100F0ACFC0028F9D0D1
:102050000134AC42F2D140F6FF7001F033F8404653
:102060004FF40071BDE8F041FEF762BD028800291F
:1020700018BF012122F0400242EA8111018070471D
:10208000002A82880CBF22EA010111438180704737
:102090000089084018BF0120704700008181704707
:1020A0002DE9F04102880B8802F4415C4A88B1F8BE
:1020B00004E043EA0C03CC881A430D8942EA0E027D
:1020C0004E8922438F892A43B1F80E8032433A4326
:1020D00042EA08020280828B22F400628283098A2B
:1020E0000182BDE8F08100008288002918BF01212B
:1020F00022F0040242EA81018180704770470000AB
:102100004EF21001CEF200010A68042822F0040207
:1021100008BF04320A607047FEF71CBD10B540F6D8
:10212000C41442F20040C2F20004C0F2F400206085
:102130000120FFF7E1FCFFF799FD012830D120686D
:102140004DF68361C4F21B310022A0FB0101C0F6F1
:10215000FC72C80D02EAD101A1F50024FEF70AFCC9
:102160000020FFF747FC0020FFF758FC0020FFF796
:102170004BFC0020FFF7C6FC012021460022FFF7A0
:1021800059FC0120FFF7BEFC3920FFF753FD002862
:10219000FAD00320FFF76AFCFFF760FD0C28FBD1A3
:1021A0000120FFF7A9FCFFF761FD01281CD11020D9
:1021B000FEF7D4FB0120FFF759FC00BFFFF74EFDEF
:1021C0000428FBD10020FEF7D5FB0020FFF712FC0E
:1021D0000020FFF723FC0020FFF716FC4FF44070AF
:1021E000BDE81040FEF7BCBEFEE7000070B54EF63D
:1021F000885CCEF2000CDCF8000041F2040140F4EF
:102200007000C4F20201CCF80000086A4CF200022F
:1022100040F0040008620868CFF6FF021040086032
:1022200051F8040C4FF6FF72CFF6F662104041F8F9
:10223000040C51F8040C4FF6FF7220F4802041F892
:10224000040C0868C0F20072104008604FF4E040CF
:1022500088624FF46050C86200200863C86348F287
:102260000000C0F2BF404860886947F2000240F0B9
:102270008050C4F200028861106841F6200E4005CB
:10228000C4F2000E0BD5DEF8000020F00070CEF88E
:102290000000DEF8000040F00070CEF8000042F2CE
:1022A0000003C4F20203186840F090001860186838
:1022B000C00503D5186820F40070186051F8040CAC
:1022C000002440F0010041F8040C40F2FF4000BF40
:1022D00051F8046C013844F10005B60701D4002D13
:1022E000F6D151F8040C800709D440F6C41040F62A
:1022F0000011C2F20000C0F23D01016049E0EFF3BD
:10230000108072B66FF4CB601469A40703D4002860
:1023100000F10100F8D1DEF80000022620F0007084
:10232000CEF80000DEF8000040F00070CEF80000AB
:10233000106866F34A2010606FF4CB601669B60728
:1023400003D5002800F10100F8D16FF4CB6000BF85
:102350001669B60703D4002800F10100F8D162B66F
:10236000186820F003001860186818600868086092
:102370000868086008680860086820F003000860C2
:10238000086840F001000860086800F00C000428AC
:10239000FAD14FF000604CF8800C70BD80B54FF062
:1023A0008040012100F0A8F8002808BF80BD4FF050
:1023B0008040012100F088F84FF08040BDE8804067
:1023C000FEF7D0BBB0B540F60044C4F20104A4F55A
:1023D00084352846012100F08FF800285BD028467C
:1023E000012100F071F840F65C60C2F20000017853
:1023F00081B140F65861C2F200010A6841F640130B
:102400000132C0F201039A420A6044D300220A60FA
:102410000270B0BD40F62E60C2F200000178C9B172
:1024200040F65262C2F20002118801318BB2B3F55C
:102430007A7F11800ED340F67563C2F200031D78D7
:10244000002111806A1CD5B2652D1A7022BF64224A
:102450001A7001700078F0B140F65460C2F20000CA
:1024600001884A1C91B26429028012D840F6756036
:10247000C2F20000007881420ED920464FF480510C
:10248000FEF756FB20464FF40051BDE8B040FEF782
:102490004FBB00210180B0BD40F67460C2F2000065
:1024A000007848B1012818BFB0BD20464FF48051D4
:1024B000BDE8B040FEF73EBB20464FF40051BDE8FA
:1024C000B040FEF737BB0000C94301617047000010
:1024D000002A82890CBF22EA0101114381817047E1
:1024E00001858282704700000268002922F0010203
:1024F00018BF013202607047026980890A4000EA11
:10250000010080B218BF0122002818BF012010402E
:1025100070470000F0B540F6FF350268C4F20005D0
:1025200043F2004342F6FF3443F6004E40F6000CFF
:10253000A842C4F20103C4F20104C4F2000EC4F2C2
:10254000000C0ADDA04214DC40F60046C4F200068E
:10255000B04216D0704514D017E0B0F1804F10D0C3
:1025600040F20046C4F20006B0420AD0604508D0EE
:102570000BE0984205D042F60046C4F20106B04294
:1025800003D14E8822F07002324341F2004740F4FA
:102590008066C4F20007BE4203D0CE8822F44072A7
:1025A000324302608A88984282850A88028505D073
:1025B00042F60042C4F20102904201D10A7A028638
:1025C000012282820268A8420ADDA04214DC40F6A1
:1025D0000044C4F20004A04216D0704514D01AE0A2
:1025E000B0F1804F10D040F20044C4F20004A04289
:1025F0000AD0604508D00EE0984205D042F600446B
:10260000C4F20104A04206D14C7A012C14BF22F47A
:10261000006242F4006270450ED18C7A22F440527E
:10262000CD7A0E7B64F30C3265F34D32012E14BF6C
:1026300022F4804242F4804243F6FF34C4F20004A4
:10264000A0420BDCB0F1804F12D040F20043C4F244
:10265000000398420CD060450AD010E0704507D0C6
:10266000984205D042F60043C4F20103984206D1D5
:102670004B7B012B14BF22F4004242F40042026063
:10268000426840F40063634508D1897B012903D186
:1026900042F480724260F0BD22F480724260F0BD6C
:1026A00010B545F20044C4F20104204640F2255121
:1026B00000F07EF938B1204640F2255100F0F0F8E4
:1026C0002046FEF7F5FB204640F2266100F070F947
:1026D00038B1204640F2266100F0E2F8204600F0D2
:1026E0001DF8204640F2244100F062F950B1204626
:1026F00040F2244100F056F9204600F0C9F9204686
:10270000FEF75AFA2046602100F052F9002808BF6F
:1027100010BD2046BDE81040FEF74CBA10B543F698
:102720000004C4F20104A0421FD140F61C70C2F2A2
:1027300000000188C9B141F2B003C2F200031A6877
:10274000002A08BF10BD013201391A600B04018054
:102750000BD01178204600F09FF9204640F2266108
:102760000122BDE8104000F0A3B810BD10B543F63B
:102770000004C4F20104204640F2255100F018F98B
:1027800038B1204640F2255100F08AF82046FEF785
:102790008FFB204640F2266100F00AF938B120464E
:1027A00040F2266100F07CF82046FFF7B7FF204694
:1027B00040F2244100F0FCF828B1204600F068F90E
:1027C0002046FEF7F9F92046602100F0F1F80028D4
:1027D00008BF10BD2046BDE81040FEF7EBB9000071
:1027E00010B544F20044C4F20004204640F22551E2
:1027F00000F0DEF8002808BF10BD204640F2255149
:1028000000F04EF8204600F043F941F2B441C2F224
:1028100000010A88531C0B8041F2B401C2F200018E
:10282000885410BD10B544F60004C4F200042046DC
:1028300040F2255100F0BCF838B1204640F2255155
:1028400000F02EF82046FEF733FB204640F22661CA
:1028500000F0AEF838B1204640F2266100F020F8D2
:102860002046FFF75BFF204640F2244100F0A0F82D
:1028700050B1204640F2244100F094F8204600F088
:1028800007F92046FEF798F92046602100F090F8FD
:10289000002808BF10BD2046BDE81040FEF78AB9E9
:1028A000090A012202FA01F1C943018070470000C0
:1028B000C1F3421301F01F0C1421022B08BF102199
:1028C000012B4FF0010308BF0C21002A03FA0CF280
:1028D00043580CBF23EA02021A43425070470000DB
:1028E00080B543F2FF71C4F2010188421ADD45F25E
:1028F0000041C4F20101884228D045F20001C4F22F
:10290000010188422AD043F60001C4F20101884245
:1029100018BF80BD4FF480400121FFF7E1F84FF46C
:10292000804022E044F20041C4F20001884221D0FC
:1029300044F60001C4F20001884227D14FF4802000
:102940000121FFF7B5F84FF480201AE04FF4802002
:102950000121FFF7C5F84FF4802006E04FF4003066
:102960000121FFF7BDF84FF400300021BDE88040A1
:10297000FFF7B6B84FF400300121FFF799F84FF494
:1029800000300021BDE88040FFF792B880BD000014
:102990008289002918BF012122F4005242EA413104
:1029A000818170470088084018BF012070470000EF
:1029B000C1F342121423022A08BF1023012A08BFC0
:1029C0000C2301F01F02C35A090A4FF0010C0088C2
:1029D0000CFA01F1084023FA02F118BF0120084067
:1029E0007047000070B586B00446008A0D46C9885D
:1029F00020F4405008432082A0894EF6F31108408D
:102A0000A9882A896B89084310431843A081A08AAA
:102A1000A98920F4407008436E46A0823046FFF733
:102A200077F843F60000C4F20100844206F10C007E
:102A30000DD045F20001C4F201018C4207D045F2ED
:102A40000041C4F201018C4218BF06F10800006881
:102A50002A68192148439100B0FBF1F048F21F5158
:102A6000C5F2EB11A0FB01235A094FF69C73C0F687
:102A7000FF7302FB0300322303EB0010A0FB0101F4
:102A8000C1F3431040EA0210208106B070BD00007F
:102A900080886FF35F2070476FF35F2181807047FC
:102AA0004FF4165100224FF4402380E80E0082813B
:102AB00070470000FEE7000080B541F2B440C2F26A
:102AC00000000021018041F2B400C2F200004FF486
:102AD0008061FDF75CFB80BDF0B585B040F6004439
:102AE000C4F20104204610211025FEF723F8ADF8AA
:102AF00004500025012601A920468DF807500396B1
:102B0000FDF742FF20461021FEF714F82046402131
:102B10004027FEF70DF801A92046ADF804708DF8A6
:102B200007500396FDF730FF20464021FEF700F8DE
:102B3000204620212027FDF7FDFF01A92046ADF802
:102B400004708DF807500396FDF71EFF20462021E4
:102B5000FDF7F0FF204608210827FDF7EBFF01A94C
:102B60002046ADF804708DF807500396FDF70CFF72
:102B700020460821FDF7DEFF05B0F0BD2DE9F0434A
:102B800085B040F60044C4F20104884681462046E0
:102B900020212025FDF7CEFFADF8045000270125A8
:102BA00001A920468DF807700395FDF7EDFE20463C
:102BB00040214026FDF7BCFF01A92046ADF8046086
:102BC0008DF807700395FDF7DFFE20464021FDF7E5
:102BD000AFFF204608210826FDF7ACFF01A92046DB
:102BE000ADF804608DF807700395FDF7CDFE204623
:102BF0000821FDF79FFF20461021FDF799FF69F09E
:102C00007F060CE020462021FDF792FF2046402160
:102C10007600FDF78FFF072F07F101070CD2204642
:102C20004021FDF785FF70B2B0F1FF3FEADC20469E
:102C30002021FDF77FFFE9E72020ADF80400002602
:102C400001A920468DF807600396FDF79DFEFF253C
:102C500020464021FDF76CFF20464021FDF76AFF2A
:102C600020462021FDF75EFF002818BF012040EA22
:102C70004505072E06F10106EAD32046402188F8D3
:102C80000050FDF755FF20461021FDF753FF204669
:102C900020212025FDF74EFF00208DF8070003902E
:102CA00001A92046ADF80450FDF76EFE204608212C
:102CB000FDF740FF05B0BDE8F08300002DE9F04FBF
:102CC00085B040F60044C4F201048B46824620469B
:102CD00008210825FDF72EFF4FF00009012701A963
:102CE0002046ADF804508DF807900397FDF74CFE91
:102CF00020460821FDF71EFF204610211025FDF774
:102D000019FF01A92046ADF804508DF807900397EC
:102D1000FDF73AFE20461021FDF70CFF204640212A
:102D20004025FDF705FF01A92046ADF804508DF8B8
:102D300007900397FDF728FE20464021FDF7F8FE97
:102D40004FF0200801A92046ADF804808DF80790C7
:102D5000CDF80C90FDF718FEBBF1000F43D0002713
:102D600020460821FDF7E4FE0025FF2620464021ED
:102D7000FDF7DEFE20464021FDF7DCFE2046202147
:102D8000FDF7D0FE002818BF012040EA4606072DB7
:102D900005F10105EAD3204640210AF80760FDF756
:102DA000C7FE012000F08EF9012000F08BF9012010
:102DB00000F088F920460821FDF7BCFE012000F054
:102DC00081F9012000F07EF9012000F07BF901205B
:102DD00000F078F9012000F075F9012000F072F997
:102DE00001375F45BCD101A92046ADF804808DF8BC
:102DF0000790CDF80C90FDF7C7FD20460821FDF7A0
:102E000099FE05B0BDE8F08F2DE9F04385B040F69E
:102E10000044C4F201040D468046204620212026AD
:102E2000FDF788FE00274FF0010901A92046ADF803
:102E300004608DF80770CDF80C90FDF7A5FD2046D5
:102E400040214026FDF774FE01A92046ADF804603C
:102E50008DF80770CDF80C90FDF796FD20464021C7
:102E6000FDF766FE204608210826FDF763FE01A94E
:102E70002046ADF804608DF80770CDF80C90FDF792
:102E800083FD20460821FDF755FE20461021FDF761
:102E90004FFE08F07F060CE020462021FDF748FE9B
:102EA000204640217600FDF745FE072F07F1010778
:102EB0000CD220464021FDF73BFE70B2B0F1FF3F3F
:102EC000EADC20462021FDF735FEE9E700260CE08C
:102ED00020462021FDF72CFE204640216D00FDF705
:102EE00029FE072E06F101060CD220464021FDF7EF
:102EF0001FFE68B2B0F1FF3FEADC20462021FDF75B
:102F000019FEE9E720464021FDF712FE2046102178
:102F1000FDF710FE204620212025FDF70BFE0020A6
:102F20008DF80700039001A92046ADF80450FDF785
:102F30002BFD20460821FDF7FDFD05B0BDE8F0831F
:102F40002DE9F04F85B040F60044C4F201048B46F1
:102F50008246204608210825FDF7ECFD4FF00009C8
:102F6000012701A92046ADF804508DF8079003977A
:102F7000FDF70AFD20460821FDF7DCFD2046102163
:102F80001025FDF7D7FD01A92046ADF804508DF8B6
:102F900007900397FDF7F8FC20461021FDF7CAFDC6
:102FA000204640214025FDF7C3FD01A92046ADF88C
:102FB00004508DF807900397FDF7E6FC204640216A
:102FC000FDF7B6FD4FF0200801A92046ADF80480BA
:102FD0008DF807900397FDF7D7FCBBF1000F49D0A0
:102FE000002725E020464021FDF7A2FD012000F04A
:102FF00069F8012000F066F8012000F063F820462F
:103000000821FDF797FD012000F05CF8012000F099
:1030100059F8012000F056F8012000F053F8012083
:1030200000F050F8012000F04DF801375F4521D045
:1030300020460821FDF77CFD1AF8076000250CE00A
:1030400020462021FDF774FD204640217600FDF743
:1030500071FD072D05F10105C4D220464021FDF781
:1030600067FD70B2B0F1FF3FEADC20462021FDF79A
:1030700061FDE9E701A92046ADF804808DF80790CD
:10308000CDF80C90FDF780FC20460821FDF752FD9D
:1030900005B0BDE8F08F00004EF210014FF4FA6267
:1030A000CEF2000150434860002088600120086093
:1030B000086800F001100128FAD00020086088603C
:1030C000704700004EF21001CEF20001400048604F
:1030D0000020886001200860086800F001100128C5
:1030E000FAD000200860886070470000B0B543F651
:1030F00000050446C4F2010500F0B6FEE1B2284620
:10310000FFF7CAFC28468021FFF74CFC0028F9D0C5
:1031100000F0AAFE28464021FFF744FC0028F9D021
:103120002046B0BD40F67460C2F2000000787047DF
:10313000014641F2B440C2F20000028841F2B400FC
:10314000C2F200000A80704710B540F60044C4F295
:10315000010420464FF40041FDF7E4FCA8B940F615
:103160007560C2F200000A21017040F62E60C2F2C2
:1031700000000021017020464FF48051FDF7D8FC7B
:1031800020464FF40051FDF7D3FC20464FF4804118
:10319000FDF7C8FC002818BF10BD40F67560C2F2EC
:1031A00000000A21017040F62E60C2F200000021EA
:1031B000017020464FF48051FDF7BAFC20464FF4D1
:1031C0000051BDE81040FDF7B3BC000040F600041C
:1031D000C4F20104FEF7A2FF0420FEF791FF00F005
:1031E000A3FC04F5405000F013FD3FA001F00AF9E4
:1031F00000F0C6FC00F02AFAFDF714FFFEF74EFDC2
:10320000FEF77CFD00F098F800F0B0FB40F6D41714
:1032100040F6D31440F67C6940F6726640F6766B51
:1032200040F6516840F6506AC2F20007C2F200044C
:10323000C2F200090025C2F20006C2F2000BC2F27F
:103240000008C2F2000A04E0FFF77EFF4846FEF7DE
:1032500027FD3878A0B33D7000F008FE40F66461A9
:10326000C2F2000108804FF6FC71084045F6294182
:10327000C0F28F21A0FB011000F058F900F042FECF
:1032800098F80010ABF80000D1B19AF800000121C5
:1032900001308AF8000040F60000C4F20100FDF79A
:1032A00049FC9AF800000A280AD340F60000C4F24C
:1032B000010001218AF8005088F80050FDF738FC21
:1032C00020780028C2D030462570FFF731FF3188C2
:1032D00040F678620629C2F200021060B4D300F012
:1032E00023FAFFF7E9FBAFE7764253505F555341AE
:1032F000525431496E69740D0000000010B540F65B
:103300005C60C2F200000121017040F6756040F679
:103310000044C2F200000A21C4F2010401702046F8
:103320004FF48051FDF704FC20464FF40051BDE8F6
:103330001040FDF7FDBB00002DE9F0418AB00C20E4
:1033400001214FF00108FEF7BFFB40F60044C4F234
:1033500001040820A4F5806501AEADF80400002743
:10336000284631468DF80870CDF80C80FDF70CFB2F
:1033700028460821FDF7DEFB4FF44050ADF804006D
:10338000204631468DF80870CDF80C80FDF7FCFA28
:1033900020464FF48051FDF7CDFB20464FF40051FD
:1033A000FDF7C8FB4FF4004006ADADF8180020460D
:1033B00029468DF81C800897FDF7E6FA4FF4804007
:1033C000ADF81800204629468DF81C800897FDF7B7
:1033D000DBFA02200121FEF75FFB40F6C410C2F2C7
:1033E000000000684DF68361C4F21B31A0FB0101AF
:1033F0004FF0FF3000EB91454FF41020A4F58434DA
:10340000CDF81A0006A92046ADF81850ADF81E7088
:10341000FFF780F8A9B220460122FFF761F840F2D9
:103420001D20C0F20010059005A8FDF769FD20469B
:1034300001210122FFF74CF820460121FFF754F843
:103440000AB0BDE8F081000010B5052888BF10BDA6
:10345000DFE800F0033E1E2E0E4940F60040C4F2A5
:103460000100A0F580600821BDE81040FDF762BBB7
:1034700040F60044C4F2010420464FF40051FDF729
:1034800059FB20464FF48051BDE81040FDF750BB7A
:1034900040F6756040F60044C2F200000A21C4F212
:1034A0000104017020464FF48051FDF741FB08E014
:1034B00040F60044C4F2010420464FF48051FDF769
:1034C00039FB20464FF40051BDE81040FDF730BBFA
:1034D00040F60040C4F20100A0F580600821BDE87C
:1034E0001040FDF725BB40F67560C2F200000A21CE
:1034F000017040F62E6040F60044C2F20000002148
:10350000C4F20104017020464FF48051FDF712FB14
:1035100020464FF40051BDE81040FDF70BBB000002
:1035200040F67461C2F20001087070472DE9F0475F
:1035300082B040F65D69C2F20009044699F80100C4
:10354000E1B2884289F8004079D0002089F8014032
:10355000FDF710FD44F6B042C0F60002082000213D
:1035600000230826FEF7BCF903273C200021012296
:1035700000230097FDF75EFD4CF6CD40604340F61A
:10358000186544F6B748C0F3C747C2F20005C0F655
:1035900000084FEAD04A284641463A4600F0D8FC97
:1035A0000A2F38BF1026304603212A460023FEF793
:1035B00097F924A2182003210023FEF791F90AEBC2
:1035C0008A00A4EB400082B22846414600F0C0FCCD
:1035D000202003212A460023FEF782F91AA22A207E
:1035E00003210023FEF77CF905273C20032101225B
:1035F00004230097FDF71EFD592C05D80B275C20EE
:10360000032101220A230CE0972C05D309275C2013
:1036100003210122082304E007275C200321012263
:1036200006230097FDF706FD022089F80200072710
:103630001E200621022204230097FDF7FBFC02B0A6
:10364000BDE8F0872E000000562000002DE9F04371
:1036500089B0292001214FF00108FEF735FA4FF417
:1036600000300121FEF718FA44F20044C4F20004CD
:103670004FF4804004F5504505AEADF814004FF00E
:103680000209042728463146CDF81C908DF8188091
:103690000897FDF779F94FF40040ADF8140028467B
:1036A0003146CDF81C908DF818800897FDF76CF91D
:1036B0004FF4007004F54845ADF814000027284683
:1036C0003146CDF81C808DF81770FDF75DF94FF489
:1036D000E130CDE900074FF44020029069462046D2
:1036E000ADF80C70FFF77EF920460121FFF750F985
:1036F0002620C0F20010049004A8FDF701FC20462B
:1037000040F225510122FFF7D3F804F5806040F222
:1037100027710122FFF7CCF828464FF40071FDF71E
:1037200007FA09B0BDE8F083F0B585B0044655A0AE
:103730000D4600F0FDFB022DA5F101060AD3002085
:1037400054A50027215C284600F0F2FB0137F8B2AF
:103750008642F7DCA15D51A000F0EAFB2078AA28A0
:1037600003D06078552840F08A802046062100F07A
:10377000CFFB01464BA000F0DBFB2046062100F00A
:10378000C7FBA17988427AD1E078012877D02079E7
:10379000022874D0A07840F65162C2F200020121E2
:1037A0002728117027D0262818D0252867D140F661
:1037B000D810C2F20000007840F6CC14C2F2000427
:1037C00060712046062100F0A3FB02462046072137
:1037D000A27105B0BDE8F040FEF71CBC40F62E60BB
:1037E000C2F200000170FFF79DFC30B3FFF79AFCB6
:1037F000012824D026E040F62E60C2F200000170BD
:10380000FFF790FC28B1FFF78DFC012804D1FFF7EA
:1038100075FD0020FFF784FE45F2AA50C0F26A2031
:1038200003904FF48170CDF80F0067208DF80E00E3
:10383000002003AC8DF8110014E0FFF75FFD0120BC
:10384000FFF76EFE45F2AA50C0F26A2001904FF4D5
:103850008170CDF8070066208DF8060000208DF8F5
:10386000090001AC2046062100F052FB40F6CC11C5
:10387000C2F20001887120460721FEF7CBFB05B09C
:10388000F0BD00BF3438355F64617461203D205B5A
:1038900000000000253032582C200000253032581E
:1038A0005D0D0A006372635F64617461203D2025D1
:1038B0003032580D0A0000002DE9F04740F60004B0
:1038C000C4F202040146204601220323FCF71EFD38
:1038D0004FF000094FF6FF7A00264FF0000819E07C
:1038E00020460221FCF7F6FC20461021FCF7F2FCF2
:1038F0002046FCF761FD1FFA89F9804448451FFA0C
:103900008AFA88BF8146504538BF8246042E06F1A8
:10391000010614D220460121FCF73AFD0A2700BF18
:1039200020460221FCF74CFD0028D9D10546012094
:1039300000F066F8013FF3D1002DD1D1E6E71FFA80
:1039400089F11FFA88F011FA8AF1401A45F25651AE
:10395000C5F2555150FB01F000EBD07080B240F63B
:10396000B8314843000BBDE8F0870000F0B585B0E2
:1039700040F600044FF480500121C4F202040126F5
:10398000FEF77EF8002002210027FCF7A9FC0020AA
:103990004FF47041FEF70AF804200121FEF794F875
:1039A00001AD2846FDF7B4F80620ADF80400032069
:1039B0000390A4F580302946FCF7E6FF4FF4602021
:1039C000CDE9020701A92046ADF804708DF810601A
:1039D000FCF702FD20460121FCF7D2FC2046202105
:1039E000FCF7F4FC0028F9D02046FCF723FD00BFCB
:1039F0002046FCF7D7FC0028FAD105B0F0BD000046
:103A000080B2FFF749BB0000002908BF70472DE9CD
:103A1000F04F81B041F20002C4F2010290424FF037
:103A200003024FF000044FF000074FF0000508BFFD
:103A30000222009224E000BF0368032202FA04FE7F
:103A40002A0723EA0E034FF02402036007F01C0C40
:103A500058BF202283580F2606FA0CF633438350B2
:103A6000426822EA0B024260C26822EA0E02C26089
:103A7000013531FA05F207F1040704F102044ED0D2
:103A8000012202FA05FB1BEA010CF1D040F20042D0
:103A9000C4F20102A2F57F7825F0030640F6000289
:103AA00058F806E0C4F2010290420BD040F6004202
:103AB000C4F20102DDF800A0904208BF4FF0010AF5
:103AC00002E000BF4FF0000A07F00C060F2202FAD6
:103AD00006F90EEA09030AFA06F6B342ACD140F23F
:103AE0000042C4F201021368AE0823EA0C0313601B
:103AF000536823EA0C03536040F20842C4F2010207
:103B0000136823EA0C031360536823EA0C03536021
:103B100058F8263023EA090348F826308CE701B02C
:103B2000BDE8F04F7047000010B584B004200121BB
:103B30000124FDF7C9FF08200121FDF7C5FF102072
:103B40000121FDF7C1FF20200121FDF7BDFF01206C
:103B50000121FDF7B9FFADF80040029440F60004E2
:103B60000020C4F201048DF8040069462046FCF7E9
:103B70000BFF20460121FCF7DBFF04B010BD000065
:103B8000B0B586B001200121FDF786FF40F6C410D4
:103B9000C2F20000006841F25971CDF2B711A0FBEA
:103BA00001014FF0FF3000EB51344FF4102000259D
:103BB000CDF80A0002A94FF08040ADF80840ADF8FA
:103BC0000E50FEF7A7FCA1B24FF080400122FEF795
:103BD00087FC40F21C10C0F20010019001A8FDF714
:103BE0008FF940F6D310C2F20000057040F6D410F1
:103BF000C2F2000005704FF0804001210122FEF763
:103C000067FC4FF080400121FEF76EFC06B0B0BDAE
:103C1000F0B585B00446FCF7E9FF2046FEF760FEEC
:103C200043F2FF70C4F20100844246DC44F20040DB
:103C3000C4F20000844271D044F60000C4F20000D7
:103C4000844240F0E18001AC2046FCF761FF09208E
:103C500001210126FDF738FF4FF480200121FDF7F7
:103C60001BFF4FF4806040F60045ADF804000020D3
:103C7000C4F20105022704902846214603978DF8D7
:103C80000860FCF781FE4FF40060ADF804000520E9
:103C900004902846214603978DF80860FCF774FECF
:103CA00040F22720C0F2001000906846FDF728F986
:103CB000A5F544444FF4164666E045F20040C4F2D0
:103CC0000100844234D043F60000C4F20100844273
:103CD00040F09A8001AC2046FCF71AFF0520012134
:103CE0000125FDF7F1FE4FF480400121FDF7ECFEC8
:103CF0004FF40070ADF8040002208DF8085040F633
:103D0000004503900420C4F201050490A5F58060ED
:103D10002146FCF739FE05F5305433E040F600400B
:103D2000C4F20100A0F548442046FCF7DDFF29E07D
:103D300001AC2046FCF7ECFE092001210125FDF72E
:103D4000C3FE4FF480200121FDF7BEFE4FF48070CA
:103D5000ADF8040002208DF8085040F600450390AD
:103D60000620C4F20105049028462146FCF70CFE0B
:103D700040F23020C0F2001000906846FDF7C0F815
:103D800005F590444FF4E13601AD2846FEF788FE74
:103D900000204FF4402102900391ADF8100020461E
:103DA00029460196FEF71EFE204640F225510022CC
:103DB000FEF77EFD204640F227710022FEF778FDD7
:103DC000204660210022FEF773FD204640F2244188
:103DD0000022FEF76DFD20460021FEF7D9FD2046AA
:103DE00040F225510122FEF763FD204660210122A9
:103DF000FEF75EFD204640F224410122FEF758FD09
:103E000020460121FEF7C4FD40F6FC6040F61E711D
:103E1000C2F20000C2F20001016000218180C17184
:103E200040F60C7040F68272C2F20000C2F200024C
:103E300002608180C17140F6147040F6E672C2F2F1
:103E40000000C2F2000202608180C17140F604707D
:103E500041F24A02C2F20000C2F200020260818016
:103E6000C17105B0F0BD0000FDF73EB870B503208C
:103E7000FFF722FD40F23A41484343F63201C0F2D7
:103E80001F3140F6486EA0FB0101C2F2000E9EF801
:103E9000000040F63063421CD5B240F64C6C89B24B
:103EA000C2F20003062DC2F2000C8EF8002043F887
:103EB00020101AD11A6801201446154653F82060C4
:103EC0000130A642C8BF3446AE42B8BF35460628C8
:103ED0003244F3D100208EF800006019101AC21786
:103EE00000EB92708010CCF80000DCF8000040F687
:103EF0001A62002818BF0146C2F2000208B21180FF
:103F000070BD000080B50220FFF7D6FC80BD000028
:103F100051B1421E0020002312F801CF01338B4221
:103F20006044F9D3C0B270470020C0B270470000AF
:103F30000FB4054B10B503A9044A029800F02CF801
:103F400010BC5DF814FB0000ED30000800000020FC
:103F50000FB4084B10B504A902AA039800F01CF88E
:103F6000044602A9002000F048FA204610BC5DF883
:103F700014FB0000FB43000802E008C8121F08C140
:103F8000002AFAD170477047002001E001C1121FDA
:103F9000002AFBD1704700002DE9FF4F8DB00F467E
:103FA0000546002606E025280BD0DDE90F129047D4
:103FB0006D1C761C28780028F5D111B03046BDE87C
:103FC000F08F0024A246A1460122EC4900E0044300
:103FD00015F8013F203B02FA03F00842F7D1287898
:103FE0002A2810D06FF02F022878A0F1300109297B
:103FF00014D80AEB8A0102EB410144F0020400EB01
:10400000010A6D1CF0E701CF5FEA000A03D544F412
:104010000054CAF1000A44F002046D1C28782E28CE
:1040200017D115F8010F44F004042A280ED06FF0C0
:104030002F022878A0F1300109290AD809EB89015B
:1040400002EB410100EB01096D1CF2E757F8049BFC
:104050006D1C28786C280FD006DC4C2817D06828F7
:104060000DD06A2814D104E0742810D07A280FD11A
:104070000DE044F400140AE044F4801401E044F438
:1040800040146978814202D104F580146D1C6D1CC6
:104090002A786E2A1FD00CDC632A31D004DC002A77
:1040A0008BD0582A11D1A3E0642A68D0692A0CD198
:1040B00065E0732A2ED004DC6F2A73D0702A04D1F5
:1040C0009BE0752A6FD0782A6ED01046DDE90F127A
:1040D0009047761C50E1C4F30250022806D0032812
:1040E00009D0042801CF09D0066045E101CFF117BE
:1040F000C0E9006140E101CF06803DE106703BE18F
:1041000017F8040B8DF8000000208DF80100EB4635
:10411000012003E057F804BB4FF0FF3061074FF078
:10412000000102D40DE008F10101884649450FDA8B
:104130008045F8DB1BF808100029F4D108E008F1ED
:10414000010188468142FADB1BF808100029F6D1EC
:10415000DDE90F23AAEB08008146214600F036F97D
:10416000304400EB080604E0DDE90F121BF8010BF8
:104170009047B8F10108F7D221464846F7E00A21F6
:10418000C4F302534FF0000B0891022B04D001CF6F
:10419000C117032B09D00AE0FF1D27F00707F7E836
:1041A000020108E032E01FE020E000B2C117042B5A
:1041B00001D140B2C117031E71F1000307DA4FF0BD
:1041C000000CD0EB0C006CEB01012D2302E0230569
:1041D00004D52B238DF82430012303E0E30701D01D
:1041E0002023F7E7984658E00A2110E010210EE05E
:1041F00010204FF0000B08900CE010214FF0000B46
:1042000044F004044FF00809089103E008214FF03E
:10421000000B0891C4F30253022B04D001CF0021FC
:10422000032B06D006E0FF1D27F00707F7E8020181
:1042300003E080B2042B00D1C0B24FF00008230786
:104240002BD5702A07D0DDF820C08CF0100C5CEA6A
:104250000B0C05D00EE040238DF82430012308E03C
:1042600050EA010306D030238DF824308DF8252044
:1042700002239846DDF820C08CF0080C5CEA0B0C99
:104280000BD150EA010301D1630706D530238DF825
:1042900024304FF00108A9F10109582A04D038A2AE
:1042A0000B9208AA0A920BE03AA2F9E75B46089A39
:1042B000FBF778FF0B9B9B5C0A9A521E0A921370C5
:1042C00050EA0102F2D10A98ADEB000000F1200B98
:1042D000600702D524F4803401E04FF00109D9458C
:1042E00002DDA9EB0B0000E0002000EB0B014144D4
:1042F0000890AAEB010AE00306D4DDE90F2321466A
:10430000504600F063F806444FF0000908E009A9A0
:1043100011F80900DDE90F12904709F10109761C37
:10432000C145F4DBE0030CD5DDE90F2321465046FF
:1043300000F04CF8064404E0DDE90F12302090470D
:10434000761C0899481E08900029F5DC08E00A98B8
:104350000A990078491C0A91DDE90F129047761CF2
:10436000BBF10001ABF1010BF1DC21465046DDE968
:104370000F2300F019F806446D1C1BE60928010004
:1043800030313233343536373839616263646566CB
:10439000000000003031323334353637383941428D
:1043A00043444546000000002DE9F0410446002545
:1043B0001E461746880404D405E039462020B0473D
:1043C0006D1C641EF9D52846BDE8F0812DE9F04149
:1043D000044600251E469046C80301D5302700E05C
:1043E0002027880404D505E041463846B0476D1CB7
:1043F000641EF9D52846BDE8F0810A68531C0B609D
:104400001070704710B5044601E0FEF76FFE14F817
:10441000010B04490028F8D1BDE810400A20FEF73E
:1044200065BE000000000020000000000000000049
:10443000002F000000000700070000147F147F1405
:1044400000242A7F2A12006264081323003649558B
:10445000225000000503000000001C224100000063
:1044600041221C000014083E08140008083E0808F9
:10447000000000A060000008080808080000606054
:104480000000002010080402003E5149453E000093
:10449000427F4000004261514946002141454B3175
:1044A000001814127F10002745454539003C4A4941
:1044B00049300001710905030036494949360006B3
:1044C0004949291E0000363600000000563600001B
:1044D0000008142241000014141414140000412296
:1044E000140800020151090600324959513E007C6E
:1044F0001211127C007F49494936003E4141412258
:10450000007F4141221C007F49494941007F090940
:104510000901003E4149497A007F0808087F0000F0
:10452000417F4100002040413F01007F08142241AB
:10453000007F40404040007F020C027F007F040863
:10454000107F003E4141413E007F09090906003EBF
:104550004151215E007F09192946004649494931E8
:104560000001017F0101003F4040403F001F20400B
:10457000201F003F4038403F0063140814630007C9
:104580000870080700615149454300007F41410020
:1045900000552A552A55000041417F0000040201C0
:1045A000020400404040404000000102040000209E
:1045B00054545478007F48444438003844444420DC
:1045C00000384444487F00385454541800087E0989
:1045D00001020018A4A4A47C007F08040478000051
:1045E000447D4000004080847D00007F102844000E
:1045F0000000417F4000007C04180478007C08041F
:10460000047800384444443800FC2424241800185A
:10461000242418FC007C0804040800485454542046
:1046200000043F444020003C4040207C001C2040CF
:10463000201C003C4030403C004428102844001C12
:10464000A0A0A07C004464544C441414141414140A
:10465000000000000000000000000000000000005A
:10466000000000F8000000000000003330000000EF
:1046700000100C06100C06000000000000000000F6
:1046800040C07840C0784000043F04043F04040068
:10469000007088FC08300000001820FF211E000078
:1046A000F008F000E018000000211C031E211E008D
:1046B00000F00888700000001E2123241927211013
:1046C00010160E00000000000000000000000000B6
:1046D000000000E01804020000000007182040005D
:1046E00000020418E000000000402018070000004D
:1046F000404080F0804040000202010F01020200B1
:10470000000000F0000000000101011F0101010094
:10471000000000000000000080B0700000000000F9
:104720000000000000000000000101010101010182
:104730000000000000000000003030000000000019
:1047400000000000806018040060180601000000EE
:1047500000E010080810E000000F102020100F00EB
:1047600000001010F8000000000020203F20200072
:10477000007008080808F0000030282422213000CA
:1047800000300808088870000018202121221C0031
:104790000000804030F8000000060524243F242457
:1047A00000F88888880808000019202020110E00D1
:1047B00000E0108888900000000F112020201F00CA
:1047C00000180808886818000000003E010000007A
:1047D0000070880808887000001C222121221C001B
:1047E00000F008080810E0000001122222110F005A
:1047F000000000C0C00000000000003030000000D9
:104800000000008000000000000080600000000048
:104810000000804020100800000102040810200061
:1048200040404040404040000404040404040400AC
:104830000008102040800000002010080402010041
:10484000007048080808F000000000303601000041
:10485000C030C828E810E0000718272423140B00F4
:104860000000C038E0000000203C2302022738206E
:1048700008F8888888700000203F202020110E0052
:10488000C030080808083800071820202010080049
:1048900008F808080810E000203F202020100F0032
:1048A00008F88888E8081000203F202023201800FE
:1048B00008F88888E8081000203F20000300000066
:1048C000C03008080838000007182020221E020007
:1048D00008F808000008F808203F210101213F20C6
:1048E000000808F8080800000020203F20200000F1
:1048F00000000808F8080800C08080807F000000E1
:1049000008F888C028180800203F20012638200019
:1049100008F8080000000000203F20202020300080
:1049200008F8F800F8F80800203F003F003F20009A
:1049300008F830C00008F808203F200007183F00A2
:10494000E01008080810E0000F10202020100F00D1
:1049500008F808080808F000203F210101010000C4
:10496000E01008080810E0000F18242438504F0009
:1049700008F8888888887000203F2000030C3020C9
:1049800000708808080838000038202121221C0007
:10499000180808F8080818000000203F2000000050
:1049A00008F808000008F808001F202020201F0039
:1049B0000878880000C83808000007380E01000099
:1049C000F80800F80008F800033C0700073C030063
:1049D000081868808068180820302C03032C3020C9
:1049E0000838C800C83808000000203F2000000038
:1049F00010080808C8380800203826212020180090
:104A0000000000FE020202000000007F4040400063
:104A1000000C30C000000000000000010638C0009B
:104A200000020202FE000000004040407F00000043
:104A30000000040202020400000000000000000068
:104A40000000000000000000808080808080808066
:104A5000000202040000000000000000000000004E
:104A600000008080808000000019242222223F2044
:104A700008F8008080000000003F112020110E0087
:104A80000000008080800000000E11202020110016
:104A9000000000808088F800000E112020103F20C8
:104AA0000000808080800000001F2222222213004C
:104AB000008080F0888888180020203F2020000097
:104AC0000000808080808000006B9494949360004C
:104AD00008F8008080800000203F210000203F2057
:104AE00000809898000000000020203F2020000057
:104AF000000000809898000000C08080807F000047
:104B000008F8000080808000203F24022D30200023
:104B1000000808F8000000000020203F20200000CE
:104B20008080808080808000203F20003F20003FE8
:104B30008080008080800000203F210000203F20F6
:104B40000000808080800000001F202020201F00A7
:104B5000808000808000000080FFA12020110E00D6
:104B60000000008080808000000E112020A0FF80C7
:104B7000808080008080800020203F212000010074
:104B800000008080808080000033242424241900C9
:104B9000008080E0808000000000001F20200000D6
:104BA0008080000000808000001F202020103F2017
:104BB000808080000080808000010E3008060100A7
:104BC00080800080008080800F300C030C300F004C
:104BD00000808000808080000020312E0E31200077
:104BE000808080000080808080818E7018060100A7
:104BF00000808080808080000021302C22213000C5
:104C000000000000807C020200000000003F4040E5
:104C100000000000FF00000000000000FF00000096
:104C20000002027C800000000040403F00000000C5
:104C30000006010102020404000000000000000060
:104C40000000000001020304010203040607080932
:104C5000120800AA040000000000D42DAA001F00C2
:104C60000000000000000060FF00001F100066EC64
:104C70001DF0801408910202D032181099F19B2C7B
:104C80000A9F392929C0512A530000B400000100AD
:104C9000004271CE1C425B1C1CA5E0350000F410E4
:104CA000E242200081500E160042B0008A183F7F79
:104CB000484A442D32200025640052465F53544137
:104CC00054455F4552524F520D000000F04C000811
:104CD00000000020D809000076020008F05000080B
:104CE000D8090020F01F0000883F000800000000E5
:104CF000120001E01102FA8282FE8000FE021262BE
:104D000082621A020001F01008184884443F007FB4
:104D10005048464146584020F00F4044C444444463
:104D2000401010FF101010F03F00101000103C1346
:104D30001014B840300E014080403F20000E120099
:104D40000022322AA6A26221110981011F000E1041
:104D50004222130B42827E02020A1223463E0010B8
:104D6000102030AC63300088C8A8998E88A8C88805
:104D70005E000F11672212128040300F00003F408A
:104D800040716113F8880122FF050212F89F100498
:104D9000001F0801227F2003119F80E1153B128232
:104DA0000115471101051040200580601F400104D6
:104DB00007107F404044584040000915000202C2DD
:104DC000020202FE3F42003B3104210105100004B3
:104DD0000F111808EAACA8A8AFA8A8ACEA082818D0
:104DE00041123E5F04081102FF020212221E5F10F0
:104DF00009404042CC00084888E412FFE9011181D3
:104E0000000B12201F204040414048504F801204A8
:104E1000012008F49495969494F40B05121F200435
:104E2000027A4A010005507A0282FE801561F40D73
:104E3000F80700FC848484FE828382805F19541208
:104E4000FF03040811402000418E3040E2040E10A0
:104E5000020CE04020F84F4849FE4848480014043E
:104E600004047FE41006FF2222223F040210207F68
:104E7000080F129090484C57242424544C448080AE
:104E800080C21006FF4949497F040A12FF5E1004E0
:104E9000100C043D132526050805102404140C9F4E
:104EA000080F16818141310F0101017F818181F15C
:104EB00000C025BE080512090AC80880040C1000AD
:104EC00010201F8040211618264100257F040B1159
:104ED00000E2222A2AF22A2622E05F080F14403F2D
:104EE0004080FF898989BF89A9C9BF80401D4304CB
:104EF00019FC0E13FE3F03240600007F20108407D8
:104F000014000F800D7D0003057E00080E11FC20AB
:104F100024A8FFA82400FC4444C442E014083F2213
:104F200021202F20A3C70A1200413380827D510621
:104F30000911804DFC040214003E0D4000052C07B1
:104F40001010D0FF9010E6030514001F0403800327
:104F50002283BE2D8005021178401D39060C0A10EF
:104F6000202424A47F2434282660032C0810100F4A
:104F70000402040244030D1341031C0CC8B88FE85B
:104F80008888404848E85FC0030D1020051C0508CC
:104F90001808FF97040C0811020B1222D20A0640CF
:104FA000062C06102CE72424C7040E13FCC0042D85
:104FB0007A031F2111E8060714807F3F4007FE0295
:104FC00022428272050512022007FF100806010E18
:104FD0000502134E432DC004140610901011164AFA
:104FE0000F131000C0041D7F050C07125E404070B7
:104FF0004E41000510081715D55557557D040C0472
:1050000014D5151740034255010E157FC0052C0518
:1050100084E43C277F040612E40010070402010028
:10502000FF090107134989013D40032004809E9236
:10503000010E139EFF040C0E107F20948444241450
:105040000F142444848460050C0E1084E45C44C472
:1050500000F29292FE9292F2800804101402017FF4
:1050600010103F808F54245F44848780404C04801C
:10507000601C81080514401D64044D03070E1002D6
:10508000A0073A10811C055020D817BF0801124113
:105090002C067F2121217F3F050806130816214099
:1050A0008000000B11DA0610D2565A535A56D240DD
:1050B000040F16FF0810080710171515FD15151712
:1050C00010002F02F2C2030D11400645002E00848D
:1050D000080F1248884109100524F400080214043E
:1050E000AA556AAA19AF00040000000000000000E1
:0400000508000149A5
:00000001FF
