:020000040800F2
:10000000D02A00205D010008F90F0008E10F000868
:10001000F50F000835040008352500080000000031
:10002000000000000000000000000000711B00083C
:100030002D0800080000000073010008191C0008CA
:1000400077010008770100087701000877010008B0
:1000500077010008770100083108000879080008D6
:1000600095080008B1080008CD08000877010008CD
:100070007701000877010008770100087701000880
:100080007701000877010008770100087701000870
:10009000770100087701000877010008E9080008E7
:1000A0007701000877010008770100087701000850
:1000B000BD1D0008E51D0008770100087701000854
:1000C0007701000877010008770100087701000830
:1000D00077010008F921000869220008AD22000814
:1000E0004D08000877010008770100087701000833
:1000F0007701000877010008770100087701000800
:100100003121000877010008770100087701000815
:1001100077010008770100087701000877010008DF
:1001200077010008770100087701000877010008CF
:1001300077010008770100087701000877010008BF
:100140007701000877010008DFF80CD000F05CF8B8
:10015000004800478D2C0008D02A00200648804720
:1001600006480047FEE7FEE7FEE7FEE7FEE7FEE79C
:10017000FEE7FEE7FEE7FEE7F11C00084901000884
:10018000D2B201E000F8012B491EFBD270470022D9
:10019000F6E710B513460A4604461946FFF7F0FF86
:1001A000204610BD2DE9F05F0546002092469B4693
:1001B00088460646814640241BE02846414647467D
:1001C000224600F042F853465A46C01A914110D3D5
:1001D00011461846224600F029F82D1A67EB01084F
:1001E0004F4622460120002100F020F817EB0009BD
:1001F0004E41201EA4F10104DFDC484631462A4668
:100200004346BDE8F09F0000064C074D06E0E0685D
:1002100040F0010394E8070098471034AC42F6D34D
:10022000FFF796FF84470008A4470008202A04DB54
:10023000203A00FA02F1002070479140C2F12003F9
:1002400020FA03F3194390407047202A04DB203A38
:1002500021FA02F00021704721FA02F3D040C2F1E6
:100260002002914008431946704770B58D1810F868
:10027000014B14F0030201D110F8012B231106D118
:1002800010F8013B03E010F8016B01F8016B521EFE
:10029000F9D1ABB110F8012B04F00C048A1A0C2C24
:1002A00003D0A2EB84129B1C08E010F8014BA2EBD8
:1002B0000422F8E712F8014B01F8014B5B1EF9D557
:1002C000A942D4D3002070BD7F2222EA010101603F
:1002D0007047000010B50C4628B12046012101F0FE
:1002E000FBF8002404E04FF48070002101F0F4F8E2
:1002F000204601F0E7F810BDB0B5122907D1D0F8BB
:100300005CC02CF0070C4CEA030CC0F85CC001EB9D
:10031000410C4FF0100E092988BFACF11E0C88BFAC
:100320004FF00C0E50F80E40072505FA0CF5AC43C3
:1003300003FA0CF32343062A40F80E3003D8343076
:100340006FF0040307E00C2A87BF2C306FF04003E6
:1003500030306FF0220302EB820205681A441F233B
:10036000934025EA0303914019430160B0BD0000AA
:100370008268002922F0010218BF013282607047B2
:100380008268002922F4A00218BF02F5A002826050
:10039000704700008168426D0020002A08BFC1F349
:1003A00080007047C06C80B2704700000068084051
:1003B00018BF012070470000806D084018BF012061
:1003C0007047000080B540F66002C4F20202136874
:1003D00043F02803136042684FF6FF63CFF6F073D3
:1003E0001A400B7891F801C042EA032291F80CE020
:1003F000426082684FF2FD73CFF6F1731A40D1E983
:1004000001131A43114341EA4C018160C16AAEF104
:10041000010221F47001D2B241EA0251C16280BDF1
:10042000416D002918BF7047816841F00401816067
:1004300070470000FEE7000010B56E2000F0F8F8ED
:1004400004466C20032100F01FF9204610BD000077
:10045000F0B581B0662000F0EBF804466D2000F0A6
:10046000E7F805466A2000F0E3F804F02001C4F341
:1004700040160022B2EB511F18BF4FF0FF3685EA3D
:10048000060202F0180E02F0040C0EEB0C0102F052
:1004900002047040214402F00105294400F02007C5
:1004A000C30841EA8707C0F30111202000EA920047
:1004B00070446044204412F06002284463F38201D7
:1004C00018BF012240EA02046A2063F3461700F0D5
:1004D000DBF86B20214600F0D7F887EA0600C0B2AF
:1004E00001B0F0BDF0B581B07AB10C460546564278
:1004F0004FF0FF30471C20447A194178D0B200F009
:10050000C3F8F01901303846F4D1012001B0F0BD34
:1005100010B50446662000F08BF8012C07D04CB9CA
:100520004FF6FE71C0F2FF3161F39F1002E001212E
:1005300061F39F10C1B2662000F0A6F810BD000064
:1005400080B50146682000F09FF880BD10B50446D4
:100550000D2000F06DF800F01F010D20002C18BFD9
:10056000E03100F091F810BD80B5692000F060F82E
:1005700000F0FA01692000F087F880BD80B569209D
:1005800000F056F840F00501692000F07DF880BDCC
:1005900080B5612000F04CF800F00F0080BD000035
:1005A00080B56020082100F06FF8052000F054F8B5
:1005B00080BD000080B56020102100F065F80120AA
:1005C00000F04AF880BD000080B56020022100F0F4
:1005D0005BF8022000F040F880BD000080B560208C
:1005E000402100F051F8062000F036F880BD0000F0
:1005F00080B500F02BF8142002F01CFAFFF7E4FF9E
:10060000612000F015F800F0CF0000F1100161202A
:1006100000F03AF80020FFF799FFFFF719FF80BDBF
:1006200080B501F0EBFF80BD80B502F07BF880BDA6
:1006300080B582B0FF218DF807100DF1070102F09F
:100640001BF89DF8070002B080BD000080B57F2038
:10065000FF2100F019F880BD70B50446002500BFE9
:10066000FFF796FFA04208D0C8206E1C02F0F8F9F0
:10067000312D3546F4D3002070BD012070BD00003F
:1006800080B502F04DF980BD80B502F0F9F880BD6B
:1006900047F21000EFF3108172B6C4F200006FF45D
:1006A000CB6100BF026821B112F0020201F1010129
:1006B000F8D041F62001C4F200010A6822F000726D
:1006C0000A600A6842F000720A6050F8101C0222A8
:1006D00062F34A2140F8101C6FF4CB61026821B12B
:1006E00012F0020201F10101F8D16FF4CB6100BFF9
:1006F000026821B112F0020201F10101F8D062B6E4
:100700007047000001684FF6FE7211405722C4F294
:100710000202016000219042016041608160C1607D
:1007200011DC2F21C4F2020188421EDC0821C4F230
:100730000201884233D01C21C4F20201884218BF52
:100740007047F02035E07F21C4F20201884219DCB5
:100750005821C4F20201884223D06C21C4F2020164
:1007600088422CD14FF4700023E03021C4F2020102
:10077000884219D04421C4F2020188421FD14FF4AB
:10078000704016E08021C4F2020188420FD094210B
:10079000C4F20201884212D14FF0704009E00F20EC
:1007A00007E04FF4702004E04FF4706001E04FF078
:1007B00070600421C4F202010A68104308607047A7
:1007C00002684FF6FE7C42F00103002908BF02EAEE
:1007D0000C030360704700002DE9F047026847F6FC
:1007E000F073D1E9026A9A4301F11007B0CF01F129
:1007F0001C0E3243D1E900899EE80A501A43224375
:100800002A433A43114341EA0C0141EA0E010160D7
:10081000C0F804A0C0F80880C0F80C90BDE8F087CC
:10082000002B08BF18461061704700007047000099
:1008300080B5012000F074F8002808BF80BD0120B9
:1008400000F068F8012000F0DDF980BD10B54FF42C
:10085000806404E06400B4F5004F88BF10BD2046FA
:1008600000F05EF80028F5D0204600F053F8A0B262
:1008700000F0C8F9EEE7000080B5022000F050F863
:10088000002808BF80BD022000F044F8022000F0DC
:10089000B9F980BD80B5042000F042F8002808BFF7
:1008A00080BD042000F036F8042000F0ABF980BDD4
:1008B00080B5082000F034F8002808BF80BD08206B
:1008C00000F028F8082000F09DF980BD80B51020C8
:1008D00000F026F8002808BF80BD102000F01AF8AC
:1008E000102000F08FF980BD10B5202405E000BF76
:1008F0006400B4F5007F88BF10BD204600F010F8FA
:100900000028F5D0204600F005F8A0B200F07AF9F2
:10091000EEE7000040F21441C4F2010108607047A4
:1009200040F20041C4F201010A68496902400840EE
:1009300018BF0120002A18BF012210407047000094
:1009400042F20001C4F202010A6822F010020A60B9
:100950000A6810430860704742F20001C4F20201C5
:100960000A6802F0F8021043086070472DE9F04170
:1009700040F60834C2F20004204600F00BF9A02033
:1009800040F60005208002200021C4F201054FF44A
:100990008078C4E9020128462146A4F8038000F0CB
:1009A00027F84FF4604005F50066208001273046A7
:1009B0002146A4F80380A76000F01AF84FF4004025
:1009C000208028462146A4F80380A76000F010F894
:1009D00028464FF4004100F0FBF82846A02100F023
:1009E000F7F830464FF4005100F0F0F8BDE8F08120
:1009F0002DE9F04F83B00C88002C00F0C88000F186
:100A00002402019200F11802B1F800B0009200F146
:100A10002802002601274FF0000E02920BE000BFD3
:100A20003BFA07F20EF1040E07F1010706F1020688
:100A30005C4600F0AC80A7F10108012202FA08FC34
:100A400014EA0C0FECD0D1F80890B9F1120F1FD8AE
:100A5000012202FA09F40D22C0F20402144217D056
:100A60005FEA0874019C0EF01C024FF00F0358BFA0
:100A700000F12004D4F800A003FA02F55B46D1F897
:100A80000CB02AEA05050BFA02F29B462A432260C3
:100A90000268032309F00F0403FA06F5AA43B440E1
:100AA00022430260C2680C79AA4304F00303B340F6
:100AB0001A43B9F1030FC26018BF19F0030208D03E
:100AC000C26A8B78ED4303F003032A40B3401A4314
:100AD000C2628268CB7822EA0C0203F0010303FAB7
:100AE00008F31A438260029D022C02D0012C04D12B
:100AF000009D2A6842EA0C022A60B9F1120F6FEADF
:100B00000C0A0FD8012202FA09F212F0061F1FBFC9
:100B1000426802EA0A02C9F3001303FA08F31CBF91
:100B20001A4342605FEAC9027FF57AAF40F200489B
:100B3000C4F20108D8F800205FEAC93442EA0C0385
:100B400058BF02EA0A03C8F80030D8F804205FEA68
:100B5000893442EA0C0358BF02EA0A03C8F8043099
:100B6000D8F808205FEAC92442EA0C0358BF02EA19
:100B70000A03C8F80830D8F80C205FEA892542EA51
:100B80000C0358BF02EA0A03C8F80C3048E703B068
:100B9000BDE8F08F4FF6FF71016000210F22C0E920
:100BA000021201717047000080B584B0ADF80010EA
:100BB00069468DF803200293FFF71AFF04B080BD49
:100BC0000069084018BF012070470000816270472B
:100BD0008161704710B584B00420012100F006FD4A
:100BE0006C462046FFF7D6FF0620ADF80000032034
:100BF000029040F60000C4F201002146FFF7F8FE23
:100C000004B010BD0146B0F5004F03D0B1F5804FE0
:100C100018BF704780B540F60040C4F20100FFF7EE
:100C2000CFFFBDE88040704741F2CC50C2F20000D7
:100C30000168013101607047B0F1804F00D070470A
:100C400041F2C85241F2C450C2F20002C2F20000A6
:100C50001368016801330131142B0160136007D35D
:100C60000023136040F6D322C2F200020123137066
:100C7000322938BF70470021016040F6D420C2F20B
:100C800000000121017070477047000043F6000129
:100C9000C4F2010188420BD045F20041C4F20101C7
:100CA000884218BF704741F21000C2F2000003E012
:100CB00041F20800C2F200000730012101707047C4
:100CC000B0B584B043F2FF71C4F20101884226DC62
:100CD00044F20041C4F20001884245D044F60001CC
:100CE000C4F20001884273D140F60000C4F2010052
:100CF00000F5806420464FF4806102F06DFC2046D0
:100D00004FF4006102F068FC272001F015FC6846F2
:100D1000FFF740FF4FF44060ADF800004FE045F2B0
:100D20000041C4F20101884234D043F60001C4F20C
:100D3000010188424CD140F60004C4F2010420466F
:100D40004FF4007102F048FC20464FF4806102F03D
:100D500043FC252001F0F0FB6846FFF71BFF4FF432
:100D6000C060ADF800002AE040F60004C4F20104BF
:100D70002046042102F030FC2046082102F02CFC21
:100D8000262001F0D9FB6846FFF704FF0C20ADF8E0
:100D9000000014E040F60000C4F2010000F5806499
:100DA00020464FF480714FF4807502F015FC30201E
:100DB00001F0C2FB6846FFF7EDFEADF800500020E1
:100DC0008DF804000320029069462046FFF710FECC
:100DD00004B0B0BD2DE9F04186B0044602A8FFF78B
:100DE000D9FE43F2FF70C4F20100844241DC44F2B8
:100DF0000040C4F20000844268D044F60000C4F20F
:100E00000000844240F0CF8009200121012600F03B
:100E1000EDFB4FF48020012100F0D0FB4FF4806007
:100E200040F60044ADF808000020C4F2010402AD11
:100E3000022705902046294604978DF80C60FFF79D
:100E4000D7FD4FF40060ADF808000520059020465E
:100E5000294604978DF80C60FFF7CAFD40F2272061
:100E6000C0F20010019001A800F0C8F806B0BDE87B
:100E7000F08145F20040C4F20100844270D043F694
:100E80000000C4F20100844240F08D800520012161
:100E9000012400F0ABFB4FF48040012100F0A6FBE1
:100EA0004FF40070ADF80800022004900420059073
:100EB00040F60040C4F20100A0F5806002A98DF860
:100EC0000C40FFF795FD06B0BDE8F081212001211F
:100ED0004FF0010800F08AFB4FF40030012100F0D0
:100EE0006DFB40F600444FF48040C4F20104ADF8BD
:100EF0000800022004F5006502AE0490042728468D
:100F000031468DF80C800597FFF772FD4FF40040D5
:100F1000ADF8080012200490284631468DF80C8068
:100F20000597FFF765FD4FF40070ADF8080000204D
:100F30008DF80B0020463146CDF81080FFF758FDA4
:100F400040F22620C0F20010019001A800F056F8EF
:100F500020464FF40071FFF739FE06B0BDE8F0817E
:100F600009200121012400F041FB4FF480200121E0
:100F700000F03CFB4FF48070ADF8080002200490B4
:100F80000620059040F60040C4F2010002A98DF849
:100F90000C40FFF72DFD40F23020C0F20010019010
:100FA00001A800F02BF806B0BDE8F08144F2004142
:100FB000C4F2000188420BD044F60001C4F20001E3
:100FC000884218BF704741F22000C2F2000003E0DF
:100FD00041F21800C2F20000063000210170704793
:100FE000FEE7000043F20000C4F200004AF6AA2126
:100FF00001607047FEE700007047000010B5C1783F
:1010000000294EF20011CEF200011AD04EF60C5219
:10101000CEF200021268072323EA12220F23C2F144
:10102000040C23FA02F24378847890F800E003FA83
:101030000CF322401A43120101EB0E0383F8002344
:1010400000E080310078012300F01F0203FA02F271
:10105000C0F3421041F8202010BD000040F0806035
:101060004EF60C5140F0FD70CEF200010860704762
:1010700080B540F6183E4FF0000CC2F2000E00BFE3
:101080004FF0FF330EEB03010028024603F101038A
:1010900018BF4FF0FF327F2B4A70F3D10CF1010CD7
:1010A000BCF1080F0EF1800E08BF80BDE8E700001C
:1010B00070B54424C4F202042046FFF723FB43F238
:1010C0000005C4F2010540F6DC2140F6183E05F1AA
:1010D0000C00C2F20001C2F2000E10234FF4806C2B
:1010E000C1E9000EC1E9023C20204FF480530022E8
:1010F0008026C1E908032046C1E90426C1E9062289
:101100008A62FFF769FB28460221012200F0F2FC07
:1011100005F550410D2022460123FFF781FB2046B3
:101120000121FFF74DFB70BD80B500F00DF900F017
:10113000B7F880BD2DE9F04F83B0DDF830B05B45E6
:1011400002D903B0BDE8F08F0E461546074600F001
:101150000F0A00F11009881D0431B21C9846D2B262
:10116000C9B2C0B21C46029201910090E3B2BAF13A
:10117000000FA3EB080009D009EB00117F290DDC5B
:1011800007EB0010C0B2314618E000BF07EB0011BA
:101190007F290ADCC8B2314610E000BFFF2915DC08
:1011A00080F0080009EB001005E0FF2915DC80F055
:1011B000080007EB0010029900F0F0002A4600F04A
:1011C00025F80134E0B25845D0D9BAE7B1F5C07F6F
:1011D0000ADA01F0F0000199F0E7B1F5C07F0BDA0F
:1011E00007EB00100199E7E7B1F5007FE9DA80F03D
:1011F000080009EB001006E0B1F5007FE1DA80F0AD
:10120000080007EB00100099D6E7000010B5012A8E
:1012100023D0022A18BF10BD40F20432C2F20002ED
:1012200002EB831C40F61833C2F2000303EBC1113A
:10123000084480386FF01F010CEB01031C6AD3F8DF
:1012400024E09A6ADB6A203140F8804F2029C3608D
:101250008260C0F804E0EFD120E040F20402C2F264
:10126000000202EB831C40F61833C2F2000303EBCA
:10127000C111084480386FF01F0100BF0CEB01035F
:101280001A6AD3F824E09C6ADB6A203140F8802F88
:101290002029C3608460C0F804E0EFD110BD0000D5
:1012A00010B541F20004C4F2010420464FF480411D
:1012B000FFF78CFC0A2001F0BDFB20464FF4804173
:1012C000FFF786FCAE2000F069F8D52000F066F844
:1012D000802000F063F8812000F060F87F2000F0AB
:1012E0005DF88D2000F05AF8142000F057F8202007
:1012F00000F054F8002000F051F8212000F04EF8E2
:10130000002000F04BF87F2000F048F8222000F089
:1013100045F8002000F042F8072000F03FF8C82010
:1013200000F03CF8A12000F039F8A42000F036F8D5
:10133000A62000F033F8AF2000F030F8562000F07F
:101340002DF8FFF7B5FE10BD10B500F019F9FFF745
:101350000DFB052001F06EFB40F61C714CF2000005
:10136000C2F20001C0F204100860002048604FF093
:1013700000708860102043F20004C8600720C4F2A7
:1013800001040882204600F0C5FB2046012100F040
:10139000E5FB2046012100F0A3FB10BD70B541F232
:1013A0000004C4F20104054620464FF40041FFF753
:1013B0000DFC04F500563046022100F0A3FB002886
:1013C00008BF70BD642001F035FB3046294600F0AF
:1013D0009FFB20464FF40041FFF7FAFB70BD000071
:1013E0002DE9F04F81B01778002F5CD044F218142B
:1013F000C0F60004904640F6183EA4F5007243F68D
:10140000F0694FF0000CC2F2000E0092C0F6000925
:10141000424609E00CF1010C5FFA8CF218F8022048
:10142000002A58FA8CF23ED0CCB2C5B20EEBC414EE
:10143000E3B104EB050A6FF0BF0500BF17780AEBB4
:10144000050407EB470705EB47074F4497F801B042
:10145000013515F1BA0784F8C0B0EFD10630C4B237
:10146000782C84BF01310020D4E700BF6719009DAC
:101470004FF0000A002400BF167805EB0616365D13
:101480003E550134082CF7D10AF1010A0835BAF1AA
:10149000020F07F18007EDD10830C4B2782C84BF69
:1014A00002310020B6E701B0BDE8F08F41F22C0216
:1014B000C4F202021368084323F47C33184310601B
:1014C0007047000041F22C01C4F202010A6822F0C8
:1014D0000F0210430860704741F22C02C4F202026E
:1014E0001368002908BF20F4807023F4F8710843C2
:1014F0001060704741F20401C4F202010A6822F050
:10150000F00210430860704741F20401C4F2020186
:101510000A6822F4E06210430860704741F2040157
:10152000C4F202010A6822F4605242EAC000086074
:101530007047000080B541F2040EC4F2020EDEF8DE
:1015400000C0DEF83C3002282CBF0143024323F0E8
:10155000030010434FF6FF72CFF2C07202EA0C0292
:101560001143CEF80010CEF83C0080BD41F20401DA
:10157000C4F202010A6822F00302104308607047B7
:1015800080B50020FFF7CAFF0120012100F00AF812
:101590000520012100F02AF84FF48050012100F0CD
:1015A00025F880BD002941F21401C4F202010A6845
:1015B0000CBF22EA0000104308607047002941F286
:1015C0001C01C4F202010A680CBF22EA00001043A9
:1015D00008607047002941F21001C4F202010A6854
:1015E0000CBF22EA0000104308607047002941F256
:1015F0001801C4F202010A680CBF22EA000010437D
:1016000008607047002941F20C01C4F202010A6827
:101610000CBF22EA00001043086070470021C4F2AA
:1016200042210860704700006021C4F24221086036
:1016300070470000B0B541F20401C4F202010B682A
:1016400040F20F2505EA93451B010C686FF4F77310
:1016500042F2004241F2002CD1F820E058BF0223B0
:10166000C0F2F402C0F27A0CE4032B4405D4CC6B34
:10167000E407644608BF144607E00C68A40340F67C
:101680000014C0F23D0458BF6446CD6B6343C5F3FC
:1016900040040D68E340C5F38104CEF3021EDFE889
:1016A00004F00209060819A252F82E2002E0624650
:1016B00000E01A4602600D6844F20874C5F3031591
:1016C000C0F60004655DEA4042600D68C5F302257E
:1016D000655D22FA05F585600D68C5F3C225655D77
:1016E00011A422FA05F5C5608D6A05F00F05655D48
:1016F000B2FBF5F24261896A0FA2C1F3031132F81D
:101700001110B3FBF1F10161B0BD00BFA086010073
:10171000400D0300801A060000350C0040420F0007
:1017200080841E0000093D0001020406080A0C1016
:10173000202020202020202001000200040006009C
:1017400008000A000C00100020004000800000018A
:1017500000010001000100010121B1EB501F41F225
:101760000001C4F2020104D04209022A14BF24314C
:101770002031096800F01F0021FA00F000F001009C
:101780007047000041F20400C4F20200006800F05B
:101790000C00704780B582B0002001902120FFF737
:1017A000DBFF019901F101010191019910B9B1F536
:1017B000A06FF3D12120FFF7CFFF002818BF012031
:1017C00002B080BD80B500F03FF880BD10B500F0DC
:1017D00073F8022805D008B900F014F80024204658
:1017E00010BD40F6C820C2F20000047800F00AF8EC
:1017F00034B140F67470C2F20000018801310180FA
:10180000204610BD80B540F68570C2F20000082168
:101810004FF0FF3200F026F980BD000080B50120B6
:10182000FEF776FE3F20FEF78BFE0020FEF78EFED1
:1018300045208021FEF728FF46200821FEF724FFDF
:10184000FEF7B8FE80BD000080B5FEF7E9FEFEF7AA
:10185000CFFE44F23571C0F6000100200C22FEF7E5
:1018600041FE44F26171C0F600010C200C22FEF72B
:1018700039FE44F25971C0F6000118200822FEF723
:1018800031FE44F24171C0F6000120201822FEF71B
:1018900029FE44F21871C0F6000138201D22FEF71F
:1018A00021FE44F26D71C0F6000155200B22FEF7B7
:1018B00019FEFFF7B3FF80BD70B540F66B74C2F23E
:1018C00000042078092800F2A680DFE800F0052255
:1018D00007300F6888919915002070BD6D20FEF7C4
:1018E000A7FEC00700F0978003207EE0FEF762FEAF
:1018F00000202070032070BDFEF7A8FE142001F028
:1019000099F8FEF761FEFFF789FF0020207006209E
:1019100070BDFEF759FEFEF79BFDFEF725FEFEF7B4
:101920008BFDFEF73DFE002870D002205DE0FEF743
:101930004BFE40F66C76C2F2000630680921FEF7D5
:1019400073FE40F6D821C2F2000140F684700A7896
:10195000C2F200000025057002F07F0230680A70B4
:10196000017808296AD14178AA2967D18178552957
:1019700064D1C178272950D026295FD1017909295E
:101980005CD14179022959D18179002956D1C17997
:10199000302953D1007AD22850D101204CE0FEF7F3
:1019A00013FEFEF755FDFEF7E9FDFEF745FD40F697
:1019B000707040F6CA21C2F20000C2F20001006855
:1019C0000988FEF75DFE6E20FEF732FE80075CBFE1
:1019D00009202070FEF702FEC0B1062005E06A2053
:1019E000FEF726FE000716D507202070012070BDE7
:1019F000FEF72EFDFEF7DEFD00202070042070BDF6
:101A0000FEF7D8FD00202070052070BD0920207051
:101A100010A002F05BFA012070BD017909290DD1F7
:101A2000417902290AD1817941B9C179312905D198
:101A3000007AD32802D1022001F06EFAFEF708FDE9
:101A400040F66A71C2F200010870FEF7B3FD022091
:101A5000257070BD52465F53544154455F45525204
:101A60004F520D0040F66C71C2F20001086040F662
:101A70006B70C2F2000001210170704710B544F292
:101A80000044C4F200040146204600F045FD00BFBA
:101A90002046802100F0CAFC0028F9D010BD0000CB
:101AA000F0B581B040F60044C4F201040D4606468C
:101AB00020464FF40071FFF78BF80027F05DFFF729
:101AC000DDFF0137AF42F9D340F6FF7000F0C8FFE9
:101AD00020464FF40071FFF779F801B0F0BD000027
:101AE0000288002918BF012122F0400242EA811138
:101AF00001807047002A82880CBF22EA010111434D
:101B0000818070470089084018BF0120704700009D
:101B1000818170472DE9F04102880B8802F4415C15
:101B20004A88B1F804E043EA0C03CC881A430D89D3
:101B300042EA0E024E8922438F892A43B1F80E8071
:101B400032433A4342EA08020280828B22F4006266
:101B50008283098A0182BDE8F08100008288002921
:101B600018BF012122F0040242EA810181807047FE
:101B70007047000010B541F20404C4F2020454F8A6
:101B8000040C40F0010044F8040C40F2FF4000BF98
:101B900054F8042C411E814203D212F00200084680
:101BA000F6D054F8040C800709D440F6C42040F65F
:101BB0000011C2F20000C0F23D01016010BDFEF74D
:101BC00067FD42F20000C4F20200016821F0030147
:101BD0000160016801602068206020682060206842
:101BE0002060206820F003002060206840F00100A1
:101BF000206000BF206800F00C000428FAD110BD5E
:101C00004EF21001CEF200010A68042822F004020C
:101C100008BF04320A60704780B5FFF705F880BD41
:101C200010B540F6C42442F20040C2F20004C0F2F3
:101C3000F40020600120FFF7F1FCFFF7ABFD012865
:101C400030D120684DF68361C4F21B310022A0FB25
:101C50000101C1F6FC72C80D02EAD101A1F5002410
:101C6000FEF77AFE0020FFF745FC0020FFF756FC48
:101C70000020FFF749FC0020FFF7D6FC0120214699
:101C80000022FFF757FC0120FFF7CEFC3920FFF7B9
:101C900063FD0028FAD00320FFF768FCFFF772FD10
:101CA0000C28FBD10120FFF7B9FCFFF773FD0128D9
:101CB0001CD11020FEF744FE0120FFF757FC00BFA7
:101CC000FFF760FD0428FBD10020FEF745FE002051
:101CD000FFF710FC0020FFF721FC0020FFF714FCA9
:101CE0004FF44070FFF7BAF910BD00BFFEE70000E7
:101CF00010B54EF68854CEF2000420684CF2000273
:101D000040F47000206041F20000C4F20200416A19
:101D1000CFF6FF0241F00401416241681140416089
:101D200001684FF6FF72CFF6F6621140016001685C
:101D30004FF6FF7221F4802101604168C0F2007209
:101D4000114041604FF4E041C1624FF460510163C2
:101D500000214163016448F20001C0F2BF4181608B
:101D6000C16941F08051C16147F20000C4F2000036
:101D7000006840050BD541F62000C4F20000016860
:101D800021F000710160016841F00071016042F2D0
:101D90000000C4F20200016841F090010160016896
:101DA000C90503D5016821F400710160FFF7E2FE67
:101DB0004FF0006044F8800C10BD000080B54FF07B
:101DC0008040012100F0DEF8002808BF80BD4FF000
:101DD0008040012100F0BEF84FF08040FEF72CFF5C
:101DE00080BD000070B540F60044C4F20104A4F5C3
:101DF00084352846012100F0C5F8002800F0A980AC
:101E00002846012100F0A6F841F20506C2F20006BC
:101E1000307858B340F65270C2F2000001884A1C74
:101E200091B2642902800ED850290FD840F65F7015
:101E3000C2F200000078012813D0022816D12046F3
:101E40004FF4005110E0002101800FE020464FF4D4
:101E50000051FEF7BBFE20464FF48051FEF7B6FE60
:101E600004E020464FF48051FEF7B2FE40F6797050
:101E7000C2F20000017840F67E740029C2F200042C
:101E800044D040F65671C2F200010A88013293B282
:101E9000642B0A803AD340F65873C2F200031D88BF
:101EA00000220A80691C8DB2B5F57A7F19802DD386
:101EB0000270042000211A8001F0B6F940F65F702C
:101EC000C2F20000017840F67872C2F200020323E9
:101ED0000229137003D0012909D1022100E0012158
:101EE00040F6D822C2F20002137819431170002183
:101EF00001700520317000F0BBFF40F67D70C2F22A
:101F00000000007800281CBF01202070207800B35A
:101F100040F65470C2F20000018801318AB2642A8E
:101F2000018016D340F65A71C2F200010A880025DA
:101F30000580501C82B2C82A088038BF70BD40F6A8
:101F40007D76C2F2000630780D80257000F0E4FF47
:101F5000357070BDC943016170470000002A828955
:101F60000CBF22EA01011143818170470185828201
:101F7000704700000268002922F0010218BF0132F8
:101F800002607047026980890A4000EA010018BFB8
:101F90000122002818BF012010407047F0B540F61C
:101FA000FF350268C4F2000543F2004342F6FF34F5
:101FB00043F6004E40F6000CA842C4F20103C4F2FE
:101FC0000104C4F2000EC4F2000C0ADDA04214DCCD
:101FD00040F60046C4F20006B04216D0704514D058
:101FE00017E0B0F1804F10D040F20046C4F2000676
:101FF000B0420AD0604508D00BE0984205D042F6C6
:102000000046C4F20106B04203D14E8822F07002AD
:10201000324341F2004740F48066C4F20007BE42FA
:1020200003D0CE8822F44072324302608A889842FC
:1020300082850A88028505D042F60042C4F2010278
:10204000904201D10A7A0286012282820268A84265
:102050000ADDA04214DC40F60044C4F20004A042B1
:1020600016D0704514D01AE0B0F1804F10D040F275
:102070000044C4F20004A0420AD0604508D00EE03B
:10208000984205D042F60044C4F20104A04206D1B1
:102090004C7A002C0CBF22F4006242F400627045BE
:1020A00012D18C7A22F44052CD7A0E7B002C18BFCC
:1020B00002F58052002D18BF02F50052002E0CBF11
:1020C00022F4804242F4804243F6FF34C4F200041A
:1020D000A0420BDCB0F1804F12D040F20043C4F2BA
:1020E000000398420CD060450AD010E0704507D03C
:1020F000984205D042F60043C4F20103984206D14B
:102100004B7B002B0CBF22F4004242F400420260E1
:10211000426840F40063634507D1897B19B142F4FA
:1021200080724260F0BD22F480724260F0BD000017
:1021300010B545F20044C4F20104204640F2255196
:1021400000F07AF938B1204640F2255100F0ECF861
:102150002046FEF72BFF204640F2266100F06CF986
:1021600038B1204640F2266100F0DEF8204600F04B
:102170001DF8204640F2244100F05EF950B120469F
:1021800040F2244100F052F9204600F0C1F9204607
:10219000FEF77CFD2046602100F04EF9002808BFC4
:1021A00010BD2046FEF770FD10BD000010B543F6CF
:1021B0000004C4F20104A0421CD141F22800C2F282
:1021C00000000188B1B141F2BC13C2F200031A68E9
:1021D00082B1013201391A600B04018008BF10BDC1
:1021E0001178204600F098F9204640F2266101223D
:1021F00000F0A2F810BD000010B543F60004C4F2D0
:102200000104204640F2255100F016F938B120466D
:1022100040F2255100F088F82046FEF7C7FE204620
:1022200040F2266100F008F938B1204640F22661FC
:1022300000F07AF82046FFF7B9FF204640F224412B
:1022400000F0FAF828B1204600F062F92046FEF7C7
:102250001DFD2046602100F0EFF8002808BF10BDEA
:102260002046FEF711FD10BD10B544F20044C4F243
:102270000004204640F2255100F0DEF8002808BF97
:1022800010BD204640F2255100F04EF8204600F0E7
:102290003FF941F2C051C2F200010A88531C0B8081
:1022A00041F2C011C2F20001885410BD10B544F6CD
:1022B0000004C4F20004204640F2255100F0BCF8AE
:1022C00038B1204640F2255100F02EF82046FEF7A6
:1022D0006DFE204640F2266100F0AEF838B120468F
:1022E00040F2266100F020F82046FFF75FFF20460D
:1022F00040F2244100F0A0F850B1204640F22441C1
:1023000000F094F8204600F003F92046FEF7BEFCEA
:102310002046602100F090F8002808BF10BD20463C
:10232000FEF7B2FC10BD0000090A012202FA01F119
:10233000C943018070470000C1F3421301F01F0C34
:102340001421022B08BF1021012B4FF0010308BFFD
:102350000C21002A03FA0CF243580CBF23EA0202B4
:102360001A4342507047000080B543F2FF71C4F237
:10237000010188421ADD45F20041C4F201018842A0
:1023800028D045F20001C4F2010188422DD043F665
:102390000001C4F20101884218BF80BD4FF48040A3
:1023A0000121FFF72FF94FF4804025E044F200416E
:1023B000C4F20001884223D044F60001C4F20001B7
:1023C000884211D14FF480200121FFF703F94FF427
:1023D00080201CE04FF480200121FFF713F94FF417
:1023E00080200021FFF70EF980BD4FF4003001215D
:1023F000FFF708F94FF400300021FFF703F980BD23
:102400004FF400300121FFF7E5F84FF400300021D0
:10241000FFF7E0F880BD00008289002918BF012184
:1024200022F4005242EA413181817047008808401D
:1024300018BF012070470000C1F34212022A06D0E3
:10244000012A14BF00F1140200F10C0201E000F1B6
:1024500010021288008801F01F03090ADA40C84000
:10246000104000F00100704770B586B00446008A45
:102470000D46C98820F4405008432082A0894EF6BA
:10248000F3110840A9882A896B890843104318432F
:10249000A081A08AA98920F4407008436E46A082DA
:1024A0003046FFF7C7F843F60000C4F2010084424B
:1024B0000BD045F20040C4F20100844205D045F241
:1024C0000000C4F20100844202D106F10C0001E0D8
:1024D00006F1080000682A68192148439100B0FB02
:1024E000F1F048F21F51C5F2EB11A0FB01235A098C
:1024F0006FF0630302FB0300322303EB0010A0FB29
:102500000101C1F3431040EA0210208106B070BD02
:1025100080886FF35F2070476FF35F218180704781
:102520004FF4165100224FF4402380E80E008281C0
:1025300070470000FEE7000000F01F00012101FAD3
:1025400000F04EF28411CEF200010860BFF34F8F0D
:10255000BFF36F8F7047000070B540F6487EC2F23F
:10256000000E9EF8001040F630734A1CD5B240F6BB
:102570004C7CC2F20003062DC2F2000C8EF8002043
:1025800043F821001BD11A686FF003011446154669
:102590005E18B6680431A642C8BF3446AE42B8BF22
:1025A000354610293244F3D100218EF8001061190C
:1025B000511ACA1701EB92718910CCF80010DCF89F
:1025C0000010002918BF084670BD000080B541F218
:1025D000C050C2F200000021018041F2C010C2F2DE
:1025E000000000214FF4806201F0EEF980BD000090
:1025F00080B5012000F034FA80BD000010B540F62F
:102600000044C4F2010420461021FEF7E1FA2046FE
:10261000102100220123FEF7C7FA20461021FEF701
:10262000D7FA20464021FEF7D1FA20464021002269
:102630000123FEF7B9FA20464021FEF7C7FA2046EB
:102640002021FEF7C5FA2046202100220123FEF7B3
:10265000ABFA20462021FEF7BBFA20460821FEF700
:10266000B7FA2046082100220123FEF79DFA2046F2
:102670000821FEF7ADFA10BD70B540F60044C4F273
:1026800001040D46064620462021FEF7A1FA204609
:10269000202100220123FEF787FA20464021FEF781
:1026A00095FA2046402100220123FEF77DFA2046BC
:1026B0004021FEF78BFA20460821FEF789FA2046D2
:1026C000082100220123FEF76FFA20460821FEF7B9
:1026D0007FFA20461021FEF779FA46F0800000F0DC
:1026E000ABF82046202100220023FEF75DFA00F01F
:1026F00083F8287020464021FEF768FA2046102112
:10270000FEF766FA20462021FEF762FA20462021D5
:1027100000220023FEF748FA20460821FEF758FA67
:1027200070BD000070B540F60044C4F201040D46CF
:10273000064620460821FEF74BFA204608210022D3
:102740000123FEF731FA20460821FEF741FA204620
:102750001021FEF73DFA2046102100220123FEF74A
:1027600023FA20461021FEF733FA20464021FEF7D7
:102770002DFA2046402100220123FEF715FA2046BB
:102780004021FEF723FA2046202100220023FEF7F5
:102790000BFA2DB3013E00BF20460821FEF716FAC2
:1027A00000F02AF806F8010F20464021FEF70EFA45
:1027B000FFF71EFFFFF71CFFFFF71AFF2046082157
:1027C000FEF706FAFFF714FFFFF712FFFFF710FFFF
:1027D000FFF70EFFFFF70CFFFFF70AFF013DDBD10C
:1027E0002046202100220023FEF7DEF920460821A2
:1027F000FEF7EEF970BD000070B540F6004400260B
:10280000FF25C4F2010400BF20464021FEF7DEF997
:1028100020464021FEF7DCF920462021FEF7D0F9C2
:10282000002818BF012040EA4505072E06F10106E1
:10283000EAD3E8B270BD000070B540F6004504462A
:102840000026C4F201050DE028462021FEF7BEF95E
:10285000284640216400FEF7BBF9072E06F1010669
:1028600028BF70BD28464021FEF7B0F960B2B0F134
:10287000FF3FE9DC28462021FEF7AAF9E8E700003F
:1028800070B540F60044C4F201040D4606462046E9
:102890002021FEF79DF92046202100220123FEF78A
:1028A00083F920464021FEF791F92046402100227D
:1028B0000123FEF779F920464021FEF787F92046EB
:1028C0000821FEF785F92046082100220123FEF7A2
:1028D0006BF920460821FEF77BF920461021FEF710
:1028E00075F906F07F00FFF7A7FF2846FFF7A4FF62
:1028F00020464021FEF76AF920461021FEF768F9CC
:1029000020462021FEF764F92046202100220023E2
:10291000FEF74AF920460821FEF75AF970BD00007B
:1029200070B540F60044C4F201040D460646204648
:102930000821FEF74DF92046082100220123FEF769
:1029400033F920460821FEF743F920461021FEF70F
:102950003FF92046102100220123FEF725F92046E9
:102960001021FEF735F920464021FEF72FF92046C9
:10297000402100220123FEF717F920464021FEF7EF
:1029800025F92046202100220123FEF70DF92DB361
:10299000013E00BF20460821FEF718F916F8010F86
:1029A000FFF74AFF20464021FEF710F9FFF720FE0F
:1029B000FFF71EFEFFF71CFE20460821FEF708F970
:1029C000FFF716FEFFF714FEFFF712FEFFF710FEEB
:1029D000FFF70EFEFFF70CFE013DDBD12046202164
:1029E00000220023FEF7E0F820460821FEF7F0F869
:1029F00070BD000010B582B045F2AA52C0F26A2242
:102A000000924FF481726C46CDF803208DF80200DD
:102A10008DF805102046062100F0E4FF40F6CC2199
:102A2000C2F20001887120460721FFF739F802B091
:102A300010BD00004EF210014FF4FA62CEF2000118
:102A4000504348600020886001200860086800F05A
:102A500001100128FAD0002008608860704700004B
:102A60004EF21001CEF20001400048600020886064
:102A700001200860086800F001100128FAD0002049
:102A8000086088607047000010B582B004468DF879
:102A9000070043F60000C4F201000DF10701012216
:102AA00000F0EAFC204602B010BD0000014641F2F1
:102AB000C050C2F20000028841F2C010C2F2000011
:102AC0000A807047F0B581B040F60044C4F20104BA
:102AD00020464FF40041FEF773F870B120464FF4E2
:102AE0008041FEF76DF8002847D040F67870C2F2BA
:102AF00000000321017001B0F0BD40F67C70C2F20D
:102B000000000024047040F6D82540F6787040F6A6
:102B10005F77C2F20005C2F200000221C2F2000794
:102B2000017038782978022801F0BF002870E2D1BE
:102B300001200021012600F077FB40F6797029780A
:102B4000C2F20000047001F0FE00287041F205009E
:102B5000C2F20000047005203C7000F089F940F6D4
:102B60007D70C2F20000007800281EBF40F67E7023
:102B7000C2F20000067001203DE040F67C70C2F217
:102B800000000024047040F6D82540F6787040F626
:102B90005F76C2F20005C2F200000121C2F2000617
:102BA000017030782978012801F0BF002870A2D187
:102BB0000520002100F038FB40F679702978C2F238
:102BC0000000047001F0FD00287041F20500C2F21F
:102BD000000004700520347000F04AF940F67D7062
:102BE000C2F20000007828B140F67E70C2F2000008
:102BF000012101700520002100F016FB01B0F0BD9D
:102C000010B540F60044C4F2010420464FF40041E0
:102C1000FDF7D6FF68B120464FF48041FDF7D0FFA5
:102C2000032100284FF0060008BF012108BF05203E
:102C300001E00120022140F67872C2F20002117018
:102C4000002100F0F1FA10BDF0B585B040F6004467
:102C50004FF40040C4F2010401ADADF804000126B8
:102C60000027204629468DF808600397FDF7C0FE2F
:102C70004FF48040ADF80400204629468DF80860E6
:102C80000397FDF7B5FE05B0F0BD000040F6000467
:102C9000C4F20104FEF7C4FF0420FEF7B1FF00F008
:102CA00027FD04F5405000F09FFD4DA001F00EF906
:102CB000FEF788FDFEF7A6FDFEF736FA00F0F8FAFB
:102CC00000F098F800F048FC00F03EFD00F05CFEDB
:102CD0004FF6FE714CF6CD420140CCF6CC42A1FB42
:102CE000021240F66671C2F200010880D00800F0BE
:102CF00099F9FFF785FF40F6517440F6D42740F666
:102D0000D32840F6857540F6767640F67A7B40F615
:102D1000507AC2F200040120C2F20007C2F2000899
:102D2000C2F200054FF00009C2F20006C2F2000B29
:102D3000C2F2000A207004E000F08CFA2846FEF788
:102D400045FDFFF7BFFE3878A0B387F8009000F08C
:102D50001BFE4FF6FE714CF6CD420140CCF6CC4244
:102D6000A1FB021240F66671C2F200010880D00891
:102D700000F058F900F022FE2178ABF80000C9B14C
:102D800040F60000C4F201000121FDF721FF9AF88E
:102D900000000130C1B20A298AF800000AD340F6C7
:102DA0000000C4F201000121FDF710FF8AF8009035
:102DB00084F8009098F800000028BFD0304688F8CA
:102DC0000090FFF773FE318840F680720629C2F248
:102DD00000021060B0D300F0D9FAFFF7F7FBABE7C1
:102DE000764253505F555341525431496E69740DC8
:102DF000000000002DE9F04184B00C2001214FF0CB
:102E00000108FEF7F3FB40F60044C4F20104082079
:102E1000A4F580656E46ADF80000002728463146CF
:102E20008DF80470CDF80880FDF7E2FD28460821F2
:102E3000FDF7CEFE4FF44050ADF80000204631467D
:102E40008DF80470CDF80880FDF7D2FD20464FF4D0
:102E50000051FDF7BDFE20464FF48051FDF7B8FE4E
:102E6000FFF7F2FE00F088F804B0BDE8F081000042
:102E700010B5052888BF10BDDFE800F0030D17214D
:102E8000303F40F60040C4F20100A0F58060082108
:102E9000FDF79EFE10BD40F60040C4F20100A0F513
:102EA00080600821FDF792FE10BD40F60044C4F298
:102EB000010420464FF40051FDF788FE08E040F67B
:102EC0000044C4F2010420464FF40051FDF780FE97
:102ED00020464FF48051FDF779FE10BD40F60044C6
:102EE000C4F2010420464FF48051FDF771FE2046E4
:102EF0004FF40051FDF76AFE10BD40F60044C4F2E5
:102F0000010420464FF40051FDF762FE20464FF4C5
:102F10008051FDF75DFE10BD40F65F71C2F2000109
:102F20000A7842B140F67D71C2F200010A78002AA7
:102F300008BF0870704740F67872C2F2000212783B
:102F4000824208BF7047087040F67970C2F20000F4
:102F50000121017041F20500C2F20000017040F64B
:102F60005670C2F200000021018040F65870C2F293
:102F70000000018070470000B0B586B0022001213A
:102F8000FEF71CFB40F6C420C2F2000000684DF6BC
:102F90008361C4F21B31A0FB01014FF0FF3000EB55
:102FA0009145002040F20044ADF80E004FF410208F
:102FB000C4F20004CDF80A0002A92046ADF808507A
:102FC000FEF7ECFFA9B220460122FEF7CFFF40F248
:102FD0001D20C0F20010019001A8FEF70FF8204656
:102FE00001210122FEF7BAFF20460121FEF7C2FFB0
:102FF00006B0B0BD80B582B044F27872C0F600026F
:10300000082000210023FEF7EBF94FF0030C3C20D1
:10301000002101220023CDF800C0FEF78BF802B09A
:1030200080BD00002DE9F04F81B04CF6CD4481B257
:10303000CCF6CC44A1FB0412D70807EB8701A0EB28
:10304000410040F6607980B2C2F2000901210428F3
:1030500088BF01EBD20799F80100F9B2884289F8DC
:10306000007002D101B0BDE8F08F00201FFA87F890
:1030700089F80170FDF7FCFFFFF7BCFF1FFA87FA24
:10308000AAFB040140F6187444F27F7BC1F3C70623
:10309000C2F20004C0F6000BCD0820465946324665
:1030A00000F0BAFC08200321224600230A2E38BF74
:1030B0001020FEF795F959A2182003210023FEF7EE
:1030C0008FF905EB8500A7EB400082B220465946F8
:1030D00000F0A2FC2020032122460023FEF780F905
:1030E0004FA22A2003210023FEF77AF90520009041
:1030F0003C200321012204230125FEF71BF840F6A2
:10310000D824B8F1590FC2F2000410D80B275C2064
:10311000032101220A230097FEF70CF840F669709C
:103120002178C2F20000057041F010001FE0BAF1F2
:10313000970F11D3092000905C200321012208235E
:103140000125FDF7F7FF40F668702178C2F2000014
:10315000057041F020000AE007275C2003210122CE
:1031600006230097FDF7E6FF207820F0300099F85D
:1031700002102070013907293FF674AFDFE801F033
:10318000040A10161C22283303271E2006210222BF
:10319000002322E007271E200621022204231CE030
:1031A0000B271E2006210222082316E00F271E20CF
:1031B000062102220C2310E01E271E2006210222D7
:1031C0001B230AE015270A2006210222102304E00F
:1031D00019271E200621022216230097FDF7AAFFB9
:1031E00001B0BDE8F08F1A270A2006210222182319
:1031F0000097FDF79FFF40F6187499F80420C2F27B
:10320000000408A1204600F007FC282006212246E1
:103210000023FEF7E5F801B0BDE8F08F2E000000B6
:10322000562000002573000080B540F66072C2F29F
:103230000002D37890708342117103D153798B428D
:1032400008BF80BDD0701078517100215170FFF718
:10325000E9FE80BD40F67870C2F2000000780328D5
:1032600006D140F67C70C2F20000017839B1704797
:1032700040F65C70C2F2000000210180704740F609
:103280005C71C2F200010A88013293B2962B0A8067
:1032900038BF704700220A8040F6D822C2F20002EE
:1032A00013780121017043F0400010707047000056
:1032B0002DE9F04389B0292001214FF00108FEF7E4
:1032C00095F94FF400300121FEF778F944F20044FB
:1032D000C4F200044FF4804004F5504505AEADF84B
:1032E00014004FF00209042728463146CDF81C90FF
:1032F0008DF818800897FDF77BFB4FF40040ADF880
:10330000140028463146CDF81C908DF81880089797
:10331000FDF76EFB4FF4007004F54845ADF814005E
:10332000002728463146CDF81C808DF81770FDF730
:103330005FFB4FF4E130CDE900074FF440200290ED
:1033400069462046ADF80C70FFF78EF82046012143
:10335000FFF762F82620C0F20010049004A8FDF7E1
:103360004DFE204640F225510122FEF7E5FF04F50F
:10337000806040F227710122FEF7DEFF28464FF4FD
:103380000071FDF723FC09B0BDE8F08310B50446D9
:103390000078AA286ED1607855286BD12046062186
:1033A00000F020FBA179884221D1E078012861D189
:1033B0002079022818BF10BDA078272826D02628FB
:1033C00030D025283AD140F6D820C2F2000000784B
:1033D00040F6CC24C2F2000460712046062100F0C1
:1033E00001FBA07120460721FEF75AFB10BD40F6F5
:1033F000D822C2F2000240F65E701378C2F20000DA
:103400000121017043F00800107010BD0220FFF789
:1034100083FD40F6D820C2F2000001786720FFF754
:10342000E9FA10BD0120FFF777FD40F6D820C2F27F
:10343000000001786620FFF7DDFA10BD40F6D822C3
:10344000C2F2000240F65E701378C2F20000012161
:1034500040F6CC24017043F00800C2F20004107062
:1034600060712046062100F0BDFAA07120460721B8
:10347000FEF716FB10BD0000F0B581B0044692B116
:1034800015460E46002700BF00F062FAF15D2046A7
:10349000FFF742F820468021FEF7C8FF0028F9D048
:1034A0000137AF42F0D100F053FA00BF204640216F
:1034B000FEF7BCFF0028F9D0012001B0F0BD0000EC
:1034C0002DE9F04140F60004C4F202040146204612
:1034D00001220323FCF710FF00264FF6FF7500279B
:1034E0004FF0000804E000BF042F07F101071DD2D0
:1034F00020460121FCF744FF0A2000F02DFA0128A4
:10350000F2D120460221FCF7DFFE20461021FCF715
:10351000DBFE2046FCF746FFB1B280448842A9B2E8
:1035200088BF0646884238BF0546DDE71FFA88F0A7
:10353000B1B2401AA9B2401A45F25651C5F25551DE
:1035400050FB01F000EBD07080B240F6B831484338
:10355000000BBDE8F081000070B584B040F60004B7
:103560004FF480500121C4F202040125FEF71AF83D
:10357000002002210026FCF7ADFE00204FF4704130
:10358000FDF794FFFDF726FB4FF46020CDE901061F
:1035900069462046ADF800608DF80C50FCF712FF2C
:1035A00020460121FCF7E4FE20462021FCF704FF21
:1035B0000028F9D02046FCF733FF00BF2046FCF777
:1035C000E9FE0028FAD104B070BD000080B580B2D9
:1035D000FFF730FA80BD00002DE9F04F82B00029DE
:1035E00000F0838041F20002C4F2010290424FF0E9
:1035F00003024FF000054FF000074FF0010408BF31
:1036000002220092019124E001680322AA405FEAAD
:10361000087321EA02014FF02403016007F01C0E39
:1036200058BF2023C6580F2101FA0EF13143C15073
:10363000416821EA0C014160C1689143C160019970
:1036400031FA04F204F1010407F1040705F102055F
:103650004BD0A4F10108012202FA08FC1CEA01097E
:10366000EED040F20042C4F201024FEA9801A2F506
:103670007F7E40F600025EF821B0C4F20102904263
:1036800008D040F60042C4F20102009E904208BFFA
:10369000012600E0002607F00C030F2202FA03FACD
:1036A0000BEA0A0206FA03F39A42ADD140F2004354
:1036B000C4F201031A6822EA09021A605A6822EA6F
:1036C00009025A6040F20843C4F201031A6822EA70
:1036D00009021A605A6822EA09025A605EF821203B
:1036E00022EA0A024EF821208EE702B0BDE8F08FF0
:1036F00010B584B0042001210124FDF777FF0820D4
:103700000121FDF773FF10200121FDF76FFF20203D
:103710000121FDF76BFF01200121FDF767FFADF8E7
:103720000040029440F600040020C4F201048DF829
:10373000040069462046FDF75BF920460121FDF7AC
:1037400045FA04B010BD0000B0B586B001200121DB
:10375000FDF734FF40F6C420C2F20000006841F2D9
:103760005971CDF2B711A0FB01014FF0FF3000EB12
:1037700051344FF410200025CDF80A0002A94FF073
:103780008040ADF80840ADF80E50FEF707FCA1B23E
:103790004FF080400122FEF7E9FB40F21C10C0F21E
:1037A0000010019001A8FDF729FC40F6D320C2F2D9
:1037B0000000057040F6D420C2F2000005704FF002
:1037C000804001210122FEF7C9FB4FF0804001211A
:1037D000FEF7D0FB06B0B0BD10B50446FDF770FA99
:1037E0002046FEF7C1FD10BD10B584B00446FFF7BA
:1037F000F3FF43F2FF70C4F20100844216DC44F28E
:103800000040C4F20000844223D044F60001C4F218
:1038100000018C426CD100F580642046FDF7DAFA95
:103820006846FEF77DFE4FF4164025E045F2004065
:10383000C4F20100844211D043F60000C4F201003A
:10384000844255D144F20040C4F2000000F57444B3
:103850000AE044F20044C4F2000405E044F20040EF
:10386000C4F2000000F588342046FDF7B3FA68463C
:10387000FEF756FE4FF4E130009000204FF4402157
:1038800001900291ADF80C0069462046FEF7ECFD70
:10389000204640F225510022FEF74EFD204640F220
:1038A00027710022FEF748FD204660210022FEF726
:1038B00043FD204640F224410022FEF73DFD204614
:1038C0000021FEF7A9FD204640F225510122FEF716
:1038D00033FD204660210122FEF72EFD204640F2F6
:1038E00024410122FEF728FD20460121FEF794FD28
:1038F00041F2080041F22A01C2F20000C2F20001C6
:10390000016000218180C17141F2180041F28E02F4
:10391000C2F20000C2F2000202608180C17141F275
:10392000200041F2F202C2F20000C2F20002026084
:103930008180C17141F2100041F25612C2F20000C2
:10394000C2F2000202608180C17104B010BD0000AB
:1039500080B5FDF747FB80BDB0B540F600050446D5
:10396000C4F202050120012C98BF0446284602211A
:10397000FCF71CFD30B90120FFF728FE013CF5D112
:103980000020B0BD0120B0BD80B50320FFF798FD39
:1039900040F25221484340F67D41CCF2CE71A0FB6B
:1039A0000101C1F38F10FEF7D7FD40F61A720146F0
:1039B000C2F2000200B2118080BD000080B502207A
:1039C000FFF77EFD80BD000010B548B104462AB166
:1039D0000B46204611461A46FCF7D2FB204610BD86
:1039E000002010BD91B180B501384FF0000E0023CA
:1039F00010F8012F01330EEB020C8B425FFA8CFEA4
:103A0000F6D3BDE880405FFA8CF070474FF0000CB1
:103A10005FFA8CF0704700000FB4084B10B504A992
:103A200002AA039800F01CF8044602A9002000F046
:103A300048FA204610BC5DF814FB0000C33E0008A5
:103A400002E008C8121F08C1002AFAD17047704767
:103A5000002001E001C1121F002AFBD170470000C5
:103A60002DE9FF4F8DB00F460546002606E02528BC
:103A70000BD0DDE90F1290476D1C761C28780028CA
:103A8000F5D111B03046BDE8F08F0024A246A14622
:103A90000122EC4900E0044315F8013F203B02FA03
:103AA00003F00842F7D128782A2810D06FF02F02AF
:103AB0002878A0F13001092914D80AEB8A0102EB19
:103AC000410144F0020400EB010A6D1CF0E701CF54
:103AD0005FEA000A03D544F40054CAF1000A44F036
:103AE00002046D1C28782E2817D115F8010F44F018
:103AF00004042A280ED06FF02F022878A0F130019C
:103B000009290AD809EB890102EB410100EB0109FF
:103B10006D1CF2E757F8049B6D1C28786C280FD0B9
:103B200006DC4C2817D068280DD06A2814D104E090
:103B3000742810D07A280FD10DE044F400140AE064
:103B400044F4801401E044F440146978814202D1C5
:103B500004F580146D1C6D1C2A786E2A1FD00CDCB5
:103B6000632A31D004DC002A8BD0582A11D1A3E07B
:103B7000642A68D0692A0CD165E0732A2ED004DC4F
:103B80006F2A73D0702A04D19BE0752A6FD0782AEF
:103B90006ED01046DDE90F129047761C50E1C4F359
:103BA0000250022806D0032809D0042801CF09D0EA
:103BB000066045E101CFF117C0E9006140E101CFA6
:103BC00006803DE106703BE117F8040B8DF800001C
:103BD00000208DF80100EB46012003E057F804BBFC
:103BE0004FF0FF3061074FF0000102D40DE008F103
:103BF0000101884649450FDA8045F8DB1BF80810BB
:103C00000029F4D108E008F1010188468142FADB7D
:103C10001BF808100029F6D1DDE90F23AAEB0800F4
:103C20008146214600F036F9304400EB080604E0F6
:103C3000DDE90F121BF8010B9047B8F10108F7D22C
:103C400021464846F7E00A21C4F302534FF0000B27
:103C50000891022B04D001CFC117032B09D00AE031
:103C6000FF1D27F00707F7E8020108E032E01FE038
:103C700020E000B2C117042B01D140B2C117031ECE
:103C800071F1000307DA4FF0000CD0EB0C006CEB85
:103C900001012D2302E0230504D52B238DF82430C8
:103CA000012303E0E30701D02023F7E7984658E01B
:103CB0000A2110E010210EE010204FF0000B0890B8
:103CC0000CE010214FF0000B44F004044FF0080901
:103CD000089103E008214FF0000B0891C4F3025350
:103CE000022B04D001CF0021032B06D006E0FF1DDC
:103CF00027F00707F7E8020103E080B2042B00D1A8
:103D0000C0B24FF0000823072BD5702A07D0DDF88A
:103D100020C08CF0100C5CEA0B0C05D00EE04023A8
:103D20008DF82430012308E050EA010306D0302347
:103D30008DF824308DF8252002239846DDF820C028
:103D40008CF0080C5CEA0B0C0BD150EA010301D19A
:103D5000630706D530238DF824304FF00108A9F110
:103D60000109582A04D038A20B9208AA0A920BE043
:103D70003AA2F9E75B46089AFCF714FA0B9B9B5CA6
:103D80000A9A521E0A92137050EA0102F2D10A985E
:103D9000ADEB000000F1200B600702D524F4803465
:103DA00001E04FF00109D94502DDA9EB0B0000E06D
:103DB000002000EB0B0141440890AAEB010AE0034C
:103DC00006D4DDE90F232146504600F063F806448F
:103DD0004FF0000908E009A911F80900DDE90F1208
:103DE000904709F10109761CC145F4DBE0030CD5CD
:103DF000DDE90F232146504600F04CF8064404E06C
:103E0000DDE90F1230209047761C0899481E089073
:103E10000029F5DC08E00A980A990078491C0A9103
:103E2000DDE90F129047761CBBF10001ABF1010BED
:103E3000F1DC21465046DDE90F2300F019F8064475
:103E40006D1C1BE60928010030313233343536371A
:103E500038396162636465660000000030313233D6
:103E60003435363738394142434445460000000076
:103E70002DE9F041044600251E461746880404D467
:103E800005E039462020B0476D1C641EF9D5284650
:103E9000BDE8F0812DE9F041044600251E4690461C
:103EA000C80301D5302700E02027880404D505E0A9
:103EB00041463846B0476D1C641EF9D52846BDE81A
:103EC000F0810A68531C0B601070704710B50446EF
:103ED00001E0FEF7D9FD14F8010B04490028F8D1E0
:103EE000BDE810400A20FEF7CFBD00000000002012
:103EF0000000000000000000002F0000000007008C
:103F0000070000147F147F1400242A7F2A12006205
:103F100064081323003649552250000005030000B1
:103F200000001C224100000041221C000014083E39
:103F300008140008083E0808000000A060000008FF
:103F40000808080800006060000000201008040253
:103F5000003E5149453E0000427F40000042615111
:103F60004946002141454B31001814127F100027AB
:103F700045454539003C4A4949300001710905036E
:103F800000364949493600064949291E000036369F
:103F90000000000056360000000814224100001402
:103FA00014141414000041221408000201510906DF
:103FB00000324959513E007C1211127C007F494960
:103FC0004936003E41414122007F4141221C007F91
:103FD00049494941007F09090901003E4149497A9F
:103FE000007F0808087F0000417F41000020404119
:103FF0003F01007F08142241007F40404040007F85
:10400000020C027F007F0408107F003E4141413EC8
:10401000007F09090906003E4151215E007F091910
:1040200029460046494949310001017F0101003F0D
:104030004040403F001F2040201F003F4038403F8D
:1040400000631408146300070870080700615149F1
:10405000454300007F41410000552A552A55000084
:1040600041417F0000040201020400404040404002
:10407000000001020400002054545478007F48449A
:10408000443800384444442000384444487F0038D1
:104090005454541800087E0901020018A4A4A47CFA
:1040A000007F080404780000447D400000408084C4
:1040B0007D00007F102844000000417F4000007C0C
:1040C00004180478007C0804047800384444443818
:1040D00000FC242424180018242418FC007C080464
:1040E000040800485454542000043F444020003C3D
:1040F0004040207C001C2040201C003C4030403CC4
:10410000004428102844001CA0A0A07C0044645453
:104110004C44141414141414000000000000000097
:104120000000000000000000000000F80000000097
:10413000000000333000000000100C06100C0600D8
:10414000000000000000000040C07840C07840003F
:10415000043F04043F040400007088FC08300000A1
:10416000001820FF211E0000F008F000E0180000F9
:1041700000211C031E211E0000F0088870000000B2
:104180001E2123241927211010160E000000000004
:104190000000000000000000000000E01804020021
:1041A000000000071820400000020418E000000092
:1041B0000040201807000000404080F08040400090
:1041C0000202010F01020200000000F000000000E6
:1041D0000101011F010101000000000000000000BA
:1041E00080B070000000000000000000000000002F
:1041F00000010101010101010000000000000000B8
:104200000030300000000000000000008060180452
:10421000006018060100000000E010080810E0002F
:10422000000F102020100F0000001010F8000000F8
:10423000000020203F202000007008080808F0003F
:10424000003028242221300000300808088870003F
:104250000018202121221C000000804030F80000BE
:1042600000060524243F242400F8888888080800D4
:104270000019202020110E0000E010888890000016
:10428000000F112020201F0000180808886818005F
:104290000000003E010000000070880808887000DF
:1042A000001C222121221C0000F008080810E00058
:1042B0000001122222110F00000000C0C000000007
:1042C000000000303000000000000080000000000E
:1042D0000000806000000000000080402010080006
:1042E00000010204081020004040404040404000CF
:1042F00004040404040404000008102040800000AA
:104300000020100804020100007048080808F000AE
:104310000000003036010000C030C828E810E0007E
:104320000718272423140B000000C038E000000009
:10433000203C23020227382008F888888870000073
:10434000203F202020110E00C03008080808380047
:10435000071820202010080008F808080810E000BE
:10436000203F202020100F0008F88888E80810005F
:10437000203F20202320180008F88888E808100033
:10438000203F200003000000C0300808083800006B
:1043900007182020221E020008F808000008F8086C
:1043A000203F210101213F20000808F808080000F3
:1043B0000020203F2020000000000808F808080026
:1043C000C08080807F00000008F888C0281808009E
:1043D000203F20012638200008F8080000000000D7
:1043E000203F20202020300008F8F800F8F80800CE
:1043F000203F003F003F200008F830C00008F808C8
:10440000203F200007183F00E01008080810E000D7
:104410000F10202020100F0008F808080808F000EE
:10442000203F210101010000E01008080810E00011
:104430000F18242438504F0008F8888888887000A6
:10444000203F2000030C3020007088080808380046
:104450000038202121221C00180808F8080818003C
:104460000000203F2000000008F808000008F808BD
:10447000001F202020201F000878880000C838086E
:10448000000007380E010000F80800F80008F800E6
:10449000033C0700073C0300081868808068180880
:1044A00020302C03032C30200838C800C8380800FE
:1044B0000000203F2000000010080808C83808004D
:1044C0002038262120201800000000FE02020200F1
:1044D0000000007F40404000000C30C000000000A1
:1044E000000000010638C00000020202FE000000C9
:1044F000004040407F00000000000402020204006F
:1045000000000000000000000000000000000000AB
:104510008080808080808080000202040000000093
:10452000000000000000000000008080808000008B
:104530000019242222223F2008F800808000000079
:10454000003F112020110E0000000080808000003C
:10455000000E112020201100000000808088F8004B
:10456000000E112020103F2000008080808000007D
:10457000001F222222221300008080F088888818E1
:104580000020203F202000000000808080808000EC
:10459000006B94949493600008F800808080000081
:1045A000203F210000203F2000809898000000005C
:1045B0000020203F2020000000000080989800008C
:1045C00000C08080807F000008F8000080808000AC
:1045D000203F24022D302000000808F800000000D1
:1045E0000020203F2020000080808080808080008C
:1045F000203F20003F20003F80800080808000001E
:10460000203F210000203F200000808080800000AB
:10461000001F202020201F008080008080000000DC
:1046200080FFA12020110E0000000080808080000B
:10463000000E112020A0FF808080800080808000FC
:1046400020203F2120000100000080808080800029
:104650000033242424241900008080E0808000009E
:104660000000001F202000008080000000808000EB
:10467000001F202020103F2080808000008080804C
:1046800000010E30080601008080008000808080DC
:104690000F300C030C300F00008080008080800001
:1046A0000020312E0E31200080808000008080802C
:1046B00080818E70180601000080808080808000DC
:1046C0000021302C2221300000000000807C0202FA
:1046D00000000000003F404000000000FF0000001C
:1046E00000000000FF0000000002027C80000000CB
:1046F0000040403F000000000006010102020404E7
:10470000000000000000000000000000010203049F
:104710000102030406070809120800AA04000000A9
:104720000000D42DAA001F0000000000000000605F
:10473000FF00001F100066EC1DF0801408910202BB
:10474000D032181099F19B2C0A9F392929C0512A7F
:10475000530000B400000100004271CE1C425B1CFB
:104760001CA5E0350000F410E242200081500E1636
:104770000042B0008A183F7F484A442D322000256D
:1047800064000000A847000800000020D80A0000CC
:104790006A020008D04B0008D80A0020F81F000069
:1047A000503A000800000000120001E01102FA82F5
:1047B00082FE8000FE02126282621A020001F01084
:1047C00008184884443F007F5048464146584020DE
:1047D000F00F4044C4444444401010FF101010F047
:1047E0003F00101000103C131014B840300E014070
:1047F00080403F20000E12000022322AA6A2622131
:10480000110981011F000E104222130B42827E0209
:10481000020A1223463E0010102030AC633000889C
:10482000C8A8998E88A8C8885E000F116722121246
:104830008040300F00003F4040716113F888012232
:10484000FF050212F89F1004001F0801227F2003B9
:10485000119F80E1153B128201154711010510409F
:10486000200580601F40010407107F4040445840ED
:1048700040000915000202C2020202FE3F42003B54
:1048800031042101051000040F111808EAACA8A892
:10489000AFA8A8ACEA08281841123E5F040811022C
:1048A000FF020212221E5F1009404042CC0008485D
:1048B00088E412FFE9011181000B12201F20404003
:1048C000414048504F801204012008F4949596947A
:1048D00094F40B05121F2004027A4A010005507A55
:1048E0000282FE801561F40DF80700FC848484FECA
:1048F000828382805F195412FF0304081140200054
:10490000418E3040E2040E10020CE04020F84F4887
:1049100049FE48484800140404047FE41006FF22BE
:1049200022223F040210207F080F129090484C571B
:10493000242424544C44808080C21006FF494949F5
:104940007F040A12FF5E1004100C043D1325260597
:104950000805102404140C9F080F16818141310FA3
:104960000101017F818181F100C025BE0805120986
:104970000AC80880040C100010201F80402116185F
:10498000264100257F040B1100E2222A2AF22A2662
:1049900022E05F080F14403F4080FF898989BF896A
:1049A000A9C9BF80401D430419FC0E13FE3F032418
:1049B0000600007F2010840714000F800D7D000387
:1049C000057E00080E11FC2024A8FFA82400FC444A
:1049D00044C442E014083F2221202F20A3C70A121A
:1049E00000413380827D51060911804DFC04021480
:1049F000003E0D4000052C071010D0FF9010E6037C
:104A00000514001F040380032283BE2D80050211BC
:104A100078401D39060C0A10202424A47F24342851
:104A20002660032C0810100F0402040244030D1327
:104A300041031C0CC8B88FE88888404848E85FC02C
:104A4000030D1020051C05081808FF97040C081119
:104A5000020B1222D20A0640062C06102CE7242450
:104A6000C7040E13FCC0042D7A031F2111E80607AA
:104A700014807F3F4007FE02224282720505120227
:104A80002007FF100806010E0502134E432DC00437
:104A9000140610901011164A0F131000C0041D7F49
:104AA000050C07125E4040704E41000510081715B6
:104AB000D55557557D040C0414D5151740034255A0
:104AC000010E157FC0052C0584E43C277F040612E7
:104AD000E400100704020100FF09010713498901DE
:104AE0003D40032004809E92010E139EFF040C0E95
:104AF000107F2094844424140F142444848460057B
:104B00000C0E1084E45C44C400F29292FE9292F285
:104B1000800804101402017F10103F808F54245F1E
:104B200044848780404C0480601C81080514401D2B
:104B300064044D03070E1002A0073A10811C0550B3
:104B400020D817BF080112412C067F2121217F3F69
:104B500005080613081621408000000B11DA061024
:104B6000D2565A535A56D240040F16FF081008075F
:104B700010171515FD15151710002F02F2C2030DA1
:104B800011400645002E0084080F1148884109197C
:104B9000FA2C0648FF48480086090A13FC5F1C04EB
:104BA0001F207FA109134F50010F4F5C4000030DE0
:104BB0007EC00610060024F40008021804AA556AF4
:104BC000AA1DAF0300040000000000000000000068
:0400000508000149A5
:00000001FF
